S00F00006A6F686E736F6E2E7372656316
S214080000D8CE0720B5330800B1330800B13308004E
S214080010B1330800B1330800B1330800000000000F
S2140800200000000000000000000000007D08080036
S214080030B133080000000000FD0808003909080070
S214080040B1330800B1330800B1330800B1330800F3
S214080050B1330800B1330800B1330800B1330800E3
S214080060B1330800B133080000000000253208004C
S214080070393208004D3208006132080000000000DE
S21408008000000000892A0800B1330800B1330800D0
S214080090B1330800B1330800B1330800B1330800A3
S2140800A0B133080000000000B1330800F901080069
S2140800B0B1330800B1330800B1330800B133080083
S2140800C0B1330800B1330800B1330800B133080073
S2140800D0B1330800B1330800B1330800B133080063
S2140800E0B1330800B1330800B1330800B133080053
S2140800F0B133080010B5054C237833B9044B13B157
S2140801000448AFF300800123237010BD580B072066
S21408011000000000A47808000C4B43B10C4810B54A
S2140801200C49AFF300800C48036823B910BD0A4891
S214080130036833B97047094B002BF7D0BDE8104069
S2140801401847064B002BF5D0184700BF00000000E4
S214080150A47808005C0B0720A478080000000000BC
S21408016010B51C20084B9847084C00220121204651
S214080170074B984701212046064B98470121204601
S214080180054B9847002010BD5D3308000000084066
S214080190650708007D0708008B07080010B54FF4B0
S2140801A080724FF020510C480C4B984778B90C4C8D
S2140801B0022120460B4B98470B4BA3FB0030C00A86
S2140801C00A4B186002212046094B984710BD0221A9
S2140801D00348084B984710BD00140E40112F08001E
S2140801E00000084093070800E99639D7740B0720E3
S2140801F08B0708008307080030B583B00D20214D13
S214080200A847430903F5001303F207735B0200F0DF
S2140802101F00012404FA00F0186300211A481B4B3B
S21408022098470190019B0920A847430903F5001346
S21408023003F207735B0200F01F0004FA00F018636D
S2140802403620134B98470920A847430903F500139F
S21408025003F207735B0200F01F0004FA00F058630D
S2140802600D20A847430903F5001303F207735B0242
S21408027000F01F0004FA00F05863064B1C6003B039
S21408028030BD00BF512A080000000840AB07080030
S21408029001000720780B0720F0B583B01B20244DFB
S2140802A0A847244C4FF4804200212046224FB847E6
S2140802B0224A00212046224B9847224E4FF00063E0
S2140802C033601022002120461F4B98470021204605
S2140802D01E4B98471D20A847002202212046B847F3
S2140802E0022120461A4B984702212046194B984768
S2140802F00E20A84704F5C22404F5806401224FF4B2
S21408030080712046144B9847144B009340234FF4B3
S21408031080720E212046124DA8474FF48071204661
S214080320104B98474FF48043336003B0F0BD00BFCE
S2140803305D330800000008406507080040164000C6
S2140803409B07080000E100E0A307080083070800F1
S2140803507D0708008B070800672F08009D01080026
S214080360B5310800ED2F080010B504461720144BC9
S2140803709847144A536843F44053536080232360D5
S214080380236B0823236020232360236843F0040399
S2140803902360636843F480136360D4F8203143F421
S2140803A0807343F00103C4F820314FF0FF33A36293
S2140803B0236943F4C33343F0A003236110BD00BF91
S2140803C05D33080000100E40002343604FF40023FE
S2140803D04360074A136A13F0040FFBD041630223F5
S2140803E00360034A136A13F0010FFBD008467047F0
S2140803F0000009400A4659B103780129C4BF41786C
S21408040041EA0323022A04DD827842EA032300E055
S2140804100023184670470000F8B5CC68002C4FD06B
S2140804200B4605468E68002068604A68120202F489
S214080430407242F48052097C090401F4FE010A4322
S2140804406A60E86059681846224B9847E860012CAD
S2140804500FD001232B6000202B6A13F4807F36D13F
S21408046047F22F5147F230574FF0010E4FF0020C6B
S21408047019E003232B600120EEE70A4670460CE0DD
S21408048008B9C5F800C013F0020FF6D070462B6BFB
S2140804903370013C01363A4664B12B6A13F4807F08
S2140804A011D1511E8AB1012CEAD013F0020FEED1F9
S2140804B00A46F1E72B6A13F0010FFBD02B6A00E01F
S2140804C001242046F8BD0524FBE70924F9E705249E
S2140804D0F7E700BFF503080082B0064A537A127A97
S2140804E00020520062F30F005B0063F31F4002B067
S2140804F0704700BF7C0B072082B0014802B07047E7
S2140805002C01900182B0064A5379127900205200D5
S21408051062F30F005B0063F31F4002B0704700BF32
S2140805207C0B072082B0064AD378927800205200C7
S21408053062F30F005B0063F31F4002B0704700BF12
S2140805407C0B072008B502490248034B984708BDAC
S2140805503801072000000940190408002DE9F04179
S21408056080B90C469046002A0FDD8F18084E094DB4
S214080570306821462B6898470134BC42F8D140467B
S214080580BDE8F0814FF0FF38F9E78046F7E700BF8F
S214080590A8AE07204CAE0720F0B48CB007460E462F
S2140805A001AC114D0FCD0FC40FCD0FC495E8070051
S2140805B084E8070001AA002352F8040BB6FBF0F003
S2140805C0B0FBF7F0B0F5807F07D901330B2BF3D1DA
S2140805D04FF6FF700CB0F0BC70470A2B94BF40EA89
S2140805E003204FF6FF70F5E72C75080070B5064631
S2140805F00D460C6844B1896820460C4B984704465B
S2140806004FF6FF7398420CD0686840B1A968074B4C
S21408061098474FF6FF73984205D044EA0044346082
S2140806200024204670BD0446FBE700BF9905080075
S21408063070B40A684B6803F00F038C8A23430C894E
S21408064023438C7A43EA44238C7D43EA0443CC7DD7
S21408065043EA44430C7E43EA844300EB4214C4F85E
S2140806600032CB68C4F804320B69C4F80C328B7DB0
S2140806703BB18C8B4B8B43EA044300EB4214C4F823
S2140806801832856C4FF001139340DB431D40CC7F36
S21408069004FA02F68C7F944044EA06442C438464A9
S2140806A0446C234091F8214004FA02F591F8204062
S2140806B0944044EA0544234343640123934091F855
S2140806C0224034B3046A1C43046291F82440012C87
S2140806D0846E0CBF1C439C43846691F82540012C0D
S2140806E0846E0CBF44EA034324EA03438366032A62
S2140806F014D9043AD200046FFF23934024EA030473
S21408070091F8233003FA02F222430267002070BCF5
S2140807107047046A24EA03040462D6E7D500C36E69
S214080720FF24AC4023EA040391F82320AA401A4386
S214080730C266EBE70B69934202D24FF6FF7070472A
S2140807400B68CA6000EB4310C0F808220020704708
S214080750012303FA01F141607047012303FA01F10E
S2140807608160704710B489014318022444504FF042
S214080770FF319962196A5A6010BC7047C0F8C410F5
S2140807807047890105234350704789010223435067
S214080790704700EB81110869704700EB8111CA6148
S2140807A0704700EB81114A62704700EB8111086AB6
S2140807B0704700F1080343604FF0FF328260C36061
S2140807C00361002303607047002303617047436892
S2140807D05A684A6042688A605A68916059604160FF
S2140807E00861036801330360704710B40C68B4F1FD
S2140807F0FF3F15D000F10803C2681268944204D37C
S2140808005B685A6812689442FAD25A684A609160DD
S2140808108B605960086103680133036010BC704739
S2140808200369F2E7436882689A60836842685A6098
S21408083003695A68904204BF82685A6000220261BF
S2140808401A68013A1A60186870470000034800687A
S214080850006880F3088862B600DF00BF08ED00E095
S2140808604FF0807340F8043C40F8081C002340F81A
S2140808700C3C40F8202C403870470000064B19689E
S2140808800868B0E8F00F80F309884FF0000080F39E
S21408089011884EF00D0E704798AB07204FF0805227
S2140808A0014B1A60704700BF04ED00E0EFF31180BB
S2140808B04FF0A00181F311887047002008B5034B5C
S2140808C09847034A13680133136008BDAD0808004B
S2140808D04C01072080F311887047000008B5054AC8
S2140808E01368013B136003B108BD0020024B98470C
S2140808F0FAE700BF4C010720D5080800EFF3098087
S2140809000C4B1A6820E9F00F10602DE908404FF0EC
S214080910A00080F3118800F0EDFE4FF0000080F391
S2140809201188BDE8084019680868B0E8F00F80F339
S2140809300988704798AB072008B54FF08052054BDA
S2140809401A60054B9847054B98470020044B984774
S21408095008BD00BF04ED00E0AD0808006D130800F0
S214080960D5080800034A044B1A600722043B1A609D
S214080970704700BF1F48010014E000E010B5094B9F
S2140809801A6842F470021A601A6842F070421A60D6
S214080990054B98470024054B1C60054B9847204696
S2140809A010BD00BF20ED00E0650908004C010720D7
S2140809B04D08080010B4134A00E01A46136883422C
S2140809C0FBD351685418A04209D041684418A34282
S2140809D00AD00360904218BF106010BC7047406889
S2140809E0014451601046F0E7074C2468A34206D03D
S2140809F05B681944416013681B680360EAE7036094
S214080A00E8E700BF90AB0720880B072038B50446F8
S214080A102A4B98472A4B1B688BB1002C47D004F109
S214080A20100212F0070F1CBF22F007020832511EF0
S214080A3049F6FE7399423CD822490C6816E0214ACA
S214080A40214B13600021516049F6F07298181C4D2E
S214080A50286049F6F475595199505A6018601B4A2F
S214080A601368103B1360D8E721461C4663689A4211
S214080A7002D92368002BF7D1114B1B689C421AD069
S214080A800D68103523680B6063689B1A202B08D8FE
S214080A900E4A136861685B1A13600D4B9847284620
S214080AA038BDA018436062600A4B9847F0E70025F7
S214080AB0F3E70025F1E70025EFE700BF3D13080040
S214080AC0880B072090AB0720900B072050010720C3
S214080AD095140800B509080080B110B50446084BFF
S214080AE09847084A54F80C3C11680B441360A4F164
S214080AF01000054B9847054B984710BD704700BF38
S214080B003D13080050010720B50908009514080091
S214080B1010B50446036C5BB903681BB1A36B0133BD
S214080B20A36310BD4068124B984700236360F5E73F
S214080B306AB91A4680680F4B9847A368226C134414
S214080B40A36062689342E9D32368A360E6E71A467F
S214080B50C068084B9847226C5242E3681344E36027
S214080B6021688B42DAD263681A44E260D6E700BF8F
S214080B70211A0800C146080038B50346006858B16F
S214080B801A6CDC681444DC605D68AC4228BFD86028
S214080B900846D968014B984738BD00BFC1460800CB
S214080BA0F8B504461F4B9847A36C002B14DD636A00
S214080BB093B104F124061C4D1C4F07E0A36C013BBF
S214080BC0A364A36C002B07DD636A2BB13046A847E5
S214080BD00028F3D0B847F1E74FF0FF33A364144B6F
S214080BE09847104B9847636C002B14DD236993B124
S214080BF004F110060C4D0D4F07E0636C013B63646F
S214080C00636C002B07DD23692BB13046A847002804
S214080C10F3D0B847F1E74FF0FF336364044B9847C7
S214080C20F8BD00BFBD080800391808006919080093
S214080C30DD08080038B508B30D460446174B984734
S214080C402268216CE36B03FB01F3D0186060002078
S214080C50A063A2605B1A1344E3604FF0FF3363643B
S214080C60A36495B923692BB104F110000C4B98477F
S214080C70012807D00B4B9847012038BD0A4B9847E8
S214080C8000BFFDE7094B9847F4E704F11000084D4C
S214080C90A84704F12400A847ECE700BFBD080800F1
S214080CA039180800DD080800AD0808009D08080087
S214080CB0B3070800F8B5D8B10D46174606465020C3
S214080CC00D4B9847044698B105FB06F001300A4BD1
S214080CD09847206048B1E663256401212046074B03
S214080CE0984784F84D702046F8BD2046044B984730
S214080CF0044B984700BFFDE70D0A0800350C0800AE
S214080D00D90A0800AD0808002DE9F04F85B0019211
S214080D1048B188469946044649B10027384EDFF858
S214080D200CA1384D2EE0384B984700BFFDE7036C02
S214080D301BB1354B984700BFFDE70027EEE74A464C
S214080D4041462046314B9847636A2BB92D4B984746
S214080D50012005B0BDE8F08F04F124002C4B98471D
S214080D600128F3D12B4B9847F0E7264B98470020ED
S214080D70EFE702A8D0470FE02046274B9847274BB7
S214080D8098470127B047A26BE36B9A42D7D3019BDB
S214080D90002BEAD0002FECD0A847214B9847B04745
S214080DA0636CB3F1FF3F04BF00236364A36CB3F125
S214080DB0FF3F04BF0023A364A84701A902A8194B54
S214080DC09847A8B9B047D4F838B0E76BA847BB45EA
S214080DD0D2D1019904F11000134B984720460E4BC8
S214080DE098470E4B98470028CBD10A4B9847C8E738
S214080DF02046094B9847094B98470020A9E700BFAB
S214080E00BD080800DD080800AD080800110B08003A
S214080E10391808009D080800A10B0800951408005A
S214080E203D130800E518080095170800BD180800C7
S214080E302DE9F04190B10E4615469846044689B10C
S214080E401B4B98470746A26BE36B9A4211D30024C4
S214080E503846184B98472046BDE8F081144B98470B
S214080E6000BFFDE7036C002BEAD0114B984700BF84
S214080E70FDE74246314620460F4B9847A36CB3F130
S214080E80FF3F0AD1636A6BB104F124000B4B984705
S214080E9050B15DB101242C60DAE7A36C0133A3647A
S214080EA00124D5E70124D3E70124D1E70124CFE7BD
S214080EB0AD080800D5080800110B08003918080006
S214080EC02DE9F04784B0019248B188469946044611
S214080ED049B10027464EDFF84CA1464D4BE0464B3D
S214080EE0984700BFFDE7036C1BB1434B984700BF0C
S214080EF0FDE70027EEE7E568414620463F4B984762
S214080F00B9F1000F17D1A36B013BA363236813B98C
S214080F103B4B9847606023693BB104F11000394B9E
S214080F209847012801D1384B9847324B98470120FB
S214080F3004B0BDE8F087E560636A002BF5D004F1DD
S214080F402400304B98470028EFD02F4B9847ECE703
S214080F50284B98470020EBE702A8D04714E0B04794
S214080F6060682A4B9847A8472CE02046284B9847A5
S214080F70284B98470127B047A36B002BBBD1019B92
S214080F80002BE5D0002FE7D0A847234B9847B0475B
S214080F90636CB3F1FF3F04BF00236364A36CB3F133
S214080FA0FF3F04BF0023A364A84701A902A81B4B60
S214080FB09847B0B9B047A76BA847002FD5D1236884
S214080FC0002BCCD0019904F12400154B98472046F5
S214080FD00F4B98470F4B98470028CBD10A4B98479A
S214080FE0C8E720460A4B98470A4B984700209FE7D1
S214080FF0BD080800DD080800AD080800790B0800E1
S21408100075190800391808009D080800A119080075
S214081010A10B0800951408003D130800E518080001
S21408102095170800BD18080038B504460D460E4B3F
S2140810309847636CB3F1FF3F04BF00236364A36C57
S214081040B3F1FF3F04BF0023A364084B9847A36B84
S2140810501BB12046064B984738BD294604F12400A4
S214081060044B9847F5E700BFBD080800DD080800F0
S214081070A10B0800F517080010B50F4B1B68586041
S2140810800E4B1B6898420ED304460D4B18680A4B45
S214081090196804310B4B98470B4B1B689C423CBFA6
S2140810A0094B1C6010BD094B1868034B19680431BE
S2140810B0044B984710BD00BF98AB072094AC072098
S2140810C09CAB0720EB07080054010720A0AB0720BD
S2140810D02DE9F84F0A9FDDF82C900C9E48B18846FB
S2140810E015469B468246042F07D9604B984700BF93
S2140810F0FDE75E4B984700BFFDE74C205C4B9847E2
S2140811000446002854D0002E48D00663AA00A5211D
S2140811103046584B984705F18045013D236B03EB55
S214081120850323F007050A22414604F13400524B92
S2140811309847002384F83D30E762A76404F1040862
S21408114040464E4EB04704F11800B0472461C7F138
S2140811500503A36164625A4651462846484B984799
S214081160206010F0070F27D1B9F1000F01D0C9F899
S2140811700040444B9847444A136801331360434B76
S2140811801B68EBB1424B1B68002B40D13F4B1B68DA
S214081190DB6A9F4224BF3D4B1C6038E0A800344BF6
S2140811A09847064620630028B0D12046394B984712
S2140811B04FF0FF30BDE8F88F2C4B984700BFFDE78F
S2140811C0324B1C601368012B21D1334E3046334D09
S2140811D0A84706F11400A84706F12800A84706F114
S2140811E03C00A84706F15000A847DFF8E4904846B8
S2140811F0A8472B4E3046A8472A48A8472A48A84753
S2140812002A48A8472A4BC3F800902A4B1E60E06A73
S214081210294B1B68984284BF274B1860274A1368D7
S214081220236401331360264B1B68984284BF244B03
S214081230186000EB80004146174B03EB8000214BFB
S2140812409847214B9847124B1B684BB10F4B1B68AE
S214081250DB6A9F4207D91D4B98470120BDE8F88FE7
S2140812600120BDE8F88F0120BDE8F88FAD0808001A
S2140812700D0A0800AD470800454A0800C9070800D7
S21408128061080800BD08080008AC072098AB0720CE
S21408129068AC0720D90A0800A4AB0720B3070800E3
S2140812A038AC072054AC072080AC07206CAC07206D
S2140812B09CAB0720A0AB072020AC072014AC072067
S2140812C01CAC0720CF070800DD0808009D080800AA
S2140812D024AC072010B584B000230393029301932F
S2140812E0009382220D490E480E4CA047012802D0D2
S2140812F080B104B010BD0C4B98470128F8D10B4BB1
S214081300984701220A4B1A6000220A4B1A600A4BB9
S2140813109847EEE7054B984700BFFDE75875080065
S2140813206D160800D1100800191B0800AD08080043
S21408133068AC072094AC07207D090800024A1368A9
S21408134001331360704700BF10AC072010B5044B7C
S2140813509847044B1C68044B9847204610BD00BFAE
S214081360BD08080094AC0720DD0808003D4B1B6844
S214081370002B6FD12DE9F0413B4B1A6801321A60F9
S2140813801B68ABB9394B1B681B68002B28D1374B39
S2140813901968374A10681860116036490A680132B9
S2140813A00A601B681B68FBB94FF0FF32324B1A60A5
S2140813B02D4B1A68304B1B689A4250D32B4B1B6830
S2140813C01B68CBB1294B1B68DB68DC686368264A58
S2140813D01268934216D8294E294FDFF8B4802FE0BA
S2140813E0284B984700BFFDE7204B1B68DB68DB6887
S2140813F05A68214B1A60DBE74FF0FF321E4B1A6023
S214081400BDE8F0811C4A1360BDE8F081E06A3B68DD
S214081410984288BF386000EB8000294608EB8000B9
S214081420194B9847114B1B681B68002BE4D00F4BD1
S2140814301B68DB68DC6863680B4A12689342E1D86D
S214081440251D2846B047A36A002BDFD004F11800F4
S214081450B047DBE70D4A1368013313607047BDE8F1
S214081460F08100BF10AC072094AC07209CAB072087
S214081470A0AB072050AC0720540107202508080019
S2140814801CAC0720AD080800CF0708000CAC0720E6
S214081490A4AB07202DE9F8432F4B1B681BB92F4B2D
S2140814A0984700BFFDE72E4B98472B4B1A68013A22
S2140814B01A601B68002B4DD12A4B1B682BB10024E1
S2140814C0DFF8CC80284F294E23E00024284B984785
S2140814D02046BDE8F883D8F80C30DD6805F118001A
S2140814E0B84705F104094846B847E86A3368984299
S2140814F088BF306000EB800049461E4B03EB800037
S2140815001D4B98471D4B1B68EA6ADB6A9A4228BF40
S2140815100124D8F80030002BDDD1194B1B6893B195
S214081520174B1B6843B1174D154CA8472368013B5A
S21408153023602368002BF8D10022134B1A60134B44
S21408154098470124C2E7012CF6D00F4B1B68012BE5
S214081550BCD1F1E70024B9E710AC0720AD080800B5
S214081560BD08080008AC0720250808001CAC0720A2
S214081570DD080800A4AB0720CF07080098AB0720B3
S2140815800CAC07206D1308004CAC07209D0808001B
S21408159054AC072038B530B10C46054639B9184B57
S2140815A0984700BFFDE7164B984700BFFDE7154B69
S2140815B098472B681C44144A126893420AD9A342D7
S2140815C00ED9114B1B682C609C420FD80F4B9847BE
S2140815D040B138BDA34208D80B4B1B689C4204D8C0
S2140815E02C60F3E70A4B984738BD2C60094B1868FF
S2140815F00430094B98472046084B9847E6E700BF53
S214081600AD0808003D13080094AC072095140800A0
S2140816109D08080098AB07202508080079100800E0
S21408162010B510B90A4B984710BD0446094B9847A1
S214081630094B1B681C44094B18680430084B98472C
S2140816402046084B9847084B98470028ECD1E9E70E
S2140816509D0808003D13080094AC072098AB0720A7
S21408166025080800791008009514080080B5164D5E
S214081670DFF87880154E24E0154B1B68012B1ED822
S2140816802B68002BF8D0C0473468B847002CF7D032
S214081690104B9847F368DC68201D0F4B98470F4A95
S2140816A01368013B13602B68013B2B600C4B984773
S2140816B0206BDFF83C90C8472046C847E0E7094B50
S2140816C09847094FDCE700BF18AC072080AC072016
S2140816D0A4AB0720BD0808002508080008AC0720AA
S2140816E0DD0808009D080800951408003D1308004A
S2140816F0D90A0800214B1B68EBB910B5204B1B68AC
S21408170003EB83039B001F4AD358C3B91C4B1B68C3
S2140817106BB11B4A1B491368013B1360136803EB44
S214081720830351F8233053B91368002BF3D1164BB3
S214081730984700BFFDE70122144B1A607047104B0C
S2140817401B68104A9900C81802EB80004468646851
S2140817504460194402460832944209D003EB8303D6
S214081760084A02EB83035B68DA68094B1A6010BD07
S2140817706068044A02EB81025060EFE710AC07206D
S2140817801CAC0720A4AB0720AD0808004CAC07200B
S21408179098AB072038B590B10C460E4D296818311D
S2140817A00D4B9847286804300C4B9847B4F1FF3F18
S2140817B009D00B4B186820440A4B984738BD0A4B8B
S2140817C0984700BFFDE7296804310848084B984742
S2140817D038BD00BF98AB0720EB07080025080800AF
S2140817E094AC072079100800AD0808006CAC0720F8
S2140817F0CF07080038B578B10D46094C216818316E
S214081800084B984720680430074B9847074B1868DA
S2140818102844074B984738BD064B984700BFFDE756
S21408182098AB0720CF0708002508080094AC0720C7
S21408183079100800AD08080038B5C368DC681CB322
S21408184004F118052846154B9847154B1B68FBB935
S214081850251D2846114B9847E06A124B1B6898428C
S21408186084BF104B186000EB800029460E4B03EB34
S21408187080000E4B98470E4B1B68E06ADB6A98425E
S21408188034BF0020012038BD0A4B984700BFFDE74B
S21408189029460948054B9847EDE700BF2508080084
S2140818A010AC07201CAC0720A4AB0720CF07080005
S2140818B098AB0720AD08080054AC072008B530B12F
S2140818C0054A12680260054A1268426008BD044B61
S2140818D0984700BFFDE700BF50AC072094AC072030
S2140818E0AD08080038B5E8B10D460446F1B1184B06
S2140818F098472B68B3F1FF3F26D0164A126821682E
S214081900914204D0144A1268616891421ED9124A5C
S21408191012686168521A93420CD801240F4B9847F4
S214081920204638BD0E4B984700BFFDE70C4B98473E
S21408193000BFFDE7084A1268521A9B1A2B60204619
S214081940084B98470024E9E70024E7E70124E5E781
S214081950BD08080050AC072094AC0720DD08080036
S214081960AD080800BD1808000122014B1A60704730
S2140819704CAC0720014B1868704700BF98AB07208F
S214081980054B1B6833B1054B1B68002B0CBF0120A9
S214081990022070470020704768AC072010AC07206C
S2140819A0002831D038B50546C36A18490968C96A97
S2140819B08B4211D215490968C96AC1F105018161CE
S2140819C003EB8303124901EB83034169994204D070
S2140819D00E4B1B68DB6AC36238BD041D20460D4BE0
S2140819E098470A4B1B68D86AE8620B4B1B689842F4
S2140819F084BF094B186000EB80002146044B03EBBC
S214081A008000064B984738BD704700BF98AB072044
S214081A10A4AB0720250808001CAC0720CF07080041
S214081A20E8B138B50446C16A826C914216D0051DE5
S214081A3028460B4B9847A06CE062C0F10503A361EB
S214081A40084B1B68984284BF064B186000EB800062
S214081A502946054B03EB8000044B984738BD704772
S214081A60250808001CAC0720A4AB0720CF070800F1
S214081A7008B54160006191420CD8D21A83699A422F
S214081A8001D3012008BD011D094B1868094B98476A
S214081A90002008BD9A4201D2994206D2011D064B83
S214081AA01868044B9847002008BD012008BD00BFF1
S214081AB09CAC0720EB07080098AC072070B50D4BC8
S214081AC098470D4B1B6813B10C4B984770BD0C4DCF
S214081AD028460C4EB0470C4C2046B0470B4B1D60B2
S214081AE00B4B1C6000220C2105200A4B9847024B22
S214081AF01860E9E7BD080800CCAC0720DD08080038
S214081B00A0AC0720B3070800B4AC072098AC0720A1
S214081B109CAC0720B50C080010B584B00B4B984752
S214081B200B4B1B6873B100230393029301930422A3
S214081B3000924FF4827207490748084CA04708B13C
S214081B4004B010BD064B984700BFFDE7BD1A080055
S214081B50CCAC072060750800691C0800D110080086
S214081B60AD08080030B585B00F4C2568D5B11C46C1
S214081B700191029203903BB10023224601A9284610
S214081B800A4CA04705B030BD094B984701284FF0CE
S214081B9000030CBF089A1A4601A903480068054CBA
S214081BA0A047EFE70020EDE7CCAC0720310E080091
S214081BB081190800090D08002DE9F04782B0814612
S214081BC0214B98478046214B1B68984215D3002323
S214081BD0C9F800301D4BC3F80080404602B0BDE887
S214081BE0F087002100910B4652462046184CA04725
S214081BF028B9184B984700BFFDE7174E174F3368AC
S214081C001A68C2B1DA68D2F800A0DB68DC68251D5D
S214081C102846B847636A20469847E369012BEED101
S214081C20A36953449A45DCD2636024612946306828
S214081C300B4B9847E3E70B4A1068074908601360A0
S214081C400123C9F80030C5E74D130800C8AC0720C3
S214081C50651B0800AD08080098AC07202508080092
S214081C60EB0708009CAC07202DE9F04186B0DFF8AA
S214081C7068814D4B1B681A68002A00F08980DB686B
S214081C801D684A4B984703A8494B98470646039B46
S214081C90002B40F08680A8420FD2A91B454B186837
S214081CA0454B9847454B984708B9454B984702A86F
S214081CB03F4B984707463F4E36E0404B98473A4BCF
S214081CC01B68DB68DC68201DC047E369012B14D15C
S214081CD0A1692B463246294420463A4EB047012889
S214081CE00BD1002100910B462A462046364DA847C0
S214081CF018B9364B984700BFFDE7636A20469847F1
S214081D00D5E70025C9E70499A16131B13B463A46B3
S214081D10394420462B4CA04706E02C4B984700BF7A
S214081D20FDE720462A4B98472A4D00231A4603A962
S214081D303068A84700289CD0059C1CB163690BB185
S214081D40201DC047039B022BDDD0032BE9D0002BB8
S214081D50EBD10499A0690B463A4601442046194D32
S214081D60A8470128E0D1636A20469847E369012B13
S214081D70DAD1A269002100910B4604980244204655
S214081D80114CA0470028CFD1104B984700BFFDE75D
S214081D90064B984703A8064B98470646039B002B16
S214081DA0AFD0064B984782E798AC07203D1308004B
S214081DB0B91B0800CCAC07202910080095140800A9
S214081DC09D080800711A0800651B0800AD08080081
S214081DD0D90A0800C10E08002508080038B54FF0D3
S214081DE0805158200B4B98470B4907250D60002358
S214081DF00B818B720B224A6041F64C520A61CB600B
S214081E00064C2046064B984729462046054B9847D9
S214081E1038BD00BFF92F080078AE072000400940FB
S214081E20310608005107080038B54FF08051572092
S214081E300B4B98470B4900230B818B720B224A6089
S214081E4041F64C520A61CB6006250D60064C2046CA
S214081E50064B984729462046054B984738BD00BF8D
S214081E60F92F080050AE0720004009403106080048
S214081E705107080030B585B024200D4B98470D4C07
S214081E80072120460C4DA84706212046A8470B4B9D
S214081E900193002302930A4B039301A92046094B9A
S214081EA09847094B9847094B984705B030BD00BF7F
S214081EB05D330800004009405B07080040420F00F9
S214081EC000BD0105ED050800DD1D0800291E0800F7
S214081ED008B540F69802824228BF0246B2F5487F07
S214081EE038BF4FF4487202490248034B984708BD6A
S214081EF078AE0720004009403507080008B540F6C8
S214081F009802824228BF0246B2F5487F38BF4FF48F
S214081F10487202490248034B984708BD50AE07204E
S214081F200040094035070800034BDB6C034A13687A
S214081F3001331360704700BF000E0E40D0AC072078
S214081F40034BDB6C034A136801331360704700BF0A
S214081F5000140E40D4AC0720014B1868704700BF29
S214081F60D0AC0720014B1868704700BFD4AC0720D8
S214081F700022014B1A607047D0AC07200022014BA4
S214081F801A607047D4AC07202DE9F04182B00B20C8
S214081F901C4CA0470E20A0471B4D01224FF40041C1
S214081FA028461A4EB0471A4C012211462046B0471A
S214081FB04FF400472F6201262662C5F88470C4F8DD
S214081FC08460144B009370233A460B212846DFF8AA
S214081FD05480C047394628460F4DA8470F4B0093F4
S214081FE0702332460E212046C04731462046A84771
S214081FF00B4B4FF400621A604FF480421A6002B02E
S214082000BDE8F0815D330800000E0E40672F08001B
S21408201000140E40291F0800ED2F0800411F080075
S21408202000E100E0B531080010B503A3D3E90023AA
S214082030034CA04710BD00BFECC9631ADCA54C4092
S2140820404D4008002DE9F04188461D46154C801A7B
S214082050A04706460F46144BC3E90067A8EB0500E1
S214082060A04704460D46114BC3E90045DFF84C80EF
S21408207032463B4630463946C04706460F46224655
S2140820802B4620462946C04702460B463046394668
S214082090074CA047074B9847074B984780B2BDE8C0
S2140820A0F08100BF813F0800D8AC0720E0AC0720CD
S2140820B0E93C0800A53A0800FD4508004D40080020
S2140820C02DE9F84390469946534EDDE90823B04774
S2140820D004460D46514BC3E90045DDE90A23404650
S2140820E04946B04706460F464D4BC3E900670022EF
S2140820F0002320462946DFF83481C04730B1002245
S214082100002330463946C047002869D100220023FC
S21408211020462946DFF81881C04748B122462B4694
S214082120304639463F4CA0473F4B9847BDE8F883B2
S2140821300022002320462946DFF8FC80C047E0B985
S2140821400022002320462946DFF8EC80C04758BB0B
S2140821500022002320462946344CA047002843D0B6
S2140821600022002330463946314CA047002840D08C
S21408217023A1D1E90001BDE8F883002200233046F8
S2140821803946DFF8B880C04770B122462B4630463D
S2140821903946244CA047244B98471BA3D3E9002371
S2140821A0244CA047BDE8F883002200233046394671
S2140821B0DFF88480C04720B915A1D1E90001BDE841
S2140821C0F88322462B4630463946164CA047164B0F
S2140821D098470DA3D3E900230F4CA047BDE8F88322
S2140821E000200021BDE8F88309A1D1E90001BDE877
S2140821F0F88307A1D1E90001BDE8F883AFF30080B2
S2140822001E264454FB21F93F1E264454FB21094050
S2140822101E264454FB21F9BFE53C0800D8AC07202D
S214082220E0AC0720A1420800593708001D45080001
S2140822306D450800E93C0800314508005945080086
S21408224010B5074B984704A3D3E90023054CA047CD
S214082250054B984700B210BDBC7493180456F63F59
S214082260813F0800A1420800AD45080070B5054644
S2140822700E46164B98470446154B9847201A80B2C8
S214082280144B1880144B197801FB00F189B2134BD4
S214082290198040F2DB539E4201D89D420ED96D1A32
S2140822A00F4B1D8031440F4B19800D4B18880E4B71
S2140822B098470C4B18880D4B984770BD0D44084B33
S2140822C01D80711A074B1980EFE700BF591F0800D9
S2140822D0651F0800ECAC072058010720EEAC072065
S2140822E0EAAC0720E8AC0720FD1E0800D11E08004F
S2140822F008B501280CD0B0F1FF3F07BF4FF4AF6117
S21408230040F2276040F2DC510846054B984708BD66
S21408231040F227614FF4AF60014B984708BD00BFF5
S2140823206D22080070B5054C40F2DC56044D314667
S2140823303046A847013CFAD170BD00BF400D0300E7
S2140823406D220800000000002DE9F04F89B04FF01C
S214082350C80900270197DFF868A14B4C30E04642D1
S21408236036B20123019352E00120484B984723E0F8
S214082370474B9847804563DDBBF1030F60D14FF0AC
S214082380FF30424B984717E040F2715140F25350E5
S214082390404B9847019F0FE03F4B984700230A227F
S2140823A002A920683D4DA8473D4B98473D4B9847A6
S2140823B04FF0C80900270197042107A83A4B984709
S2140823C0D0470790354D01230A2202A92068A8475E
S2140823D00028F8D0354DDDE90401A84700B2344B93
S2140823E0984727A3D3E90023324EB047A84705B23B
S2140823F0BDF90800304B98470646002DBDBF6D4214
S2140824002DB24FF0030B4FF0000B0028A7DB2B4B29
S2140824109847A8463544A842BEDA1D4B98478542D9
S214082420BADD264B9847804506DD194B9847804508
S21408243002DDBBF1000F97D0204B9847804597DC0C
S214082440012F01D0144B9847019B012B9CD01FFAF3
S21408245089F0C0F5E0610131C0F5DB60013089B272
S21408246080B20C4B9847B9F1000F05D009F1FF3937
S2140824705FFA89F901279FE7CDF8049001279BE7C3
S21408248046B6F3FDD4780E40A0AE0720F122080029
S214082490651F08006D22080025230800C10E0800E5
S2140824A0711F08007D1F080095150800AD45080037
S2140824B0813F0800A142080041220800591F080071
S2140824C04D130800000000002DE9F04F91B0934826
S2140824D0934B9847934B9847934B9847934B186062
S2140824E0934B9847934B18600520934B984743099E
S2140824F003F5001303F207735B02DA6B00F01F00A4
S214082500012303FA00F0104200F0FB808B4B98473B
S2140825108B4B18608B48824B98472A230493814B31
S2140825209847814B9847DFF80492C9F80000DFF80F
S2140825301082030C82B2B8F80210B8F80000824C79
S214082540A04700B200EBD0704FEA600B7F4CB8F89B
S2140825500200A04706460F46B8F80000A047CDE997
S2140825600601B9F80200A047CDE90201B9F8000053
S214082570A047CDE9000132463B46DDE90601744C2A
S214082580A047744B984704460D46ADF830B0CDE9E1
S2140825900E4500230A220CA96F4800686F4EB04704
S2140825A0D9F800206E4B1A60B9F80220B9F8001066
S2140825B06C485B4EB047B8F80220B8F800106A4876
S2140825C0B047BDF9307020462946684B98473A46CA
S2140825D001B26748B047DFF88081049BABEB030B7A
S2140825E0BBF1030F40F3DA80624C012302220CA9E8
S2140825F0D8F80000A0470028F7D14A4B98474A4B1E
S21408260098474A4D2860020C81B25648444FB8474E
S214082610DFF84C91B9F80220B9F800105648B847C8
S214082620474E6B882A8871883088474CA04700B286
S21408263000EBD0704FEA600B444C6888A047CDE9A1
S21408264006012888A047CDE90801B9F80200A04786
S214082650CDE90201B9F80000A047CDE90001DDE99F
S2140826600623DDE90801DFF8E8A0D047DFF8E490A4
S214082670C847CDE906017088A047CDE9080130882B
S214082680A047CDE90A016888A047CDE90201288855
S214082690A047CDE90001DDE90823DDE90A01D047B6
S2140826A0C847DDE90623354CA04704460D46DFF843
S2140826B0BCA0D04781465A4601B23148B84772880E
S2140826C031883048B84789EAE970A0EBE9702E4BA4
S2140826D0984700222D4B2E4EB047E0B9ADF830B0E3
S2140826E0CDE90E45002305220CA9D8F800001B4C9E
S2140826F0A04700283FF471AF0C4B1A68184B1A60B5
S2140827006BE7244B98470E4B18602348044B9847B2
S2140827102F23049303E700240025DFE768750800E5
S2140827209946080045050800D9040800F4AC0720B7
S214082730F9040800F0AC0720512A0800250508000F
S214082740FCAC07208C75080045200800613F08008F
S214082750C120080029200800A0AE0720090D08009F
S214082760F8AC0720B0750800C8750800AD45080025
S214082770E8750800C10E080008760800E53C080061
S2140827802076080038760800813F08000000F03FF1
S21408279031450800050508009C750800924D934CC5
S2140827A0012302220CA92868A0470028F8D19048DF
S2140827B0904EB0470C219048904B984745F2F05001
S2140827C08F4B98478F4B98478F4B98478F4D0746A8
S2140827D028600FF20C29D9E900898D4C000CA04717
S2140827E0CDE90201B8B2A047CDE9000142464B4602
S2140827F040464946DFF848A2D047864FB847CDE955
S21408280004016888A047CDE906012888A0478046C5
S2140828108946DFF828B2BBF80200A047CDE90201D6
S214082820BBF80000A047CDE90001DDE906234046D5
S2140828304946D047B847804689466B882A884FF469
S21408284096710846744CA04707B242464B46DDE9E7
S2140828500401724CA04704460D46DFF8E891C847C5
S21408286080463A4601B26E48B0476E4B5A88198879
S2140828706D48B04788EAE870A0EBE8706B4B98475D
S21408288000226B4B6B4EB047002840F0A380ADF893
S2140828903070CDE90E45002305220CA95248006881
S2140828A0654CA04718B1594B1A68644B1A604E4DD0
S2140828B04E4C012302220CA92868A0470028F8D10C
S2140828C0504B9847504B9847504D4FEA104BADF831
S2140828D010002860DFF84CA14D4CBAF80200A0475B
S2140828E080468946BAF80000A04706460F461FFAF3
S2140828F08BF0A047CDE90201BDF81000A047CDE94E
S214082900000142464B46304639464D4FB847414E81
S214082910B047CDE904016888A047CDE906012888B4
S214082920A04780468946DFF814B1BBF80200A047E6
S214082930CDE90201BBF80000A047CDE90001DDE9BA
S214082940062340464946B847B04706460F46BAF8F3
S21408295002102D396B882A8889B2BAF800002E4CE6
S214082960A0470FFA80F832463B46DDE904012B4CB7
S214082970A04704460D46334B98470028B8BF404248
S2140829802A4B984700222A4B2A4EB04728BBADF858
S2140829903080CDE90E45002305220CA912480068B0
S2140829A0254CA04718B1194B1A68244B1A600E4DCF
S2140829B00E4C012302220CA92868A0470028F8D14B
S2140829C00D210D480D4B98471F480A4CA0471F4835
S2140829D0A047FEE70024002559E700240025D6E78F
S2140829E00000000000C07240A0AE0720C10E08001C
S2140829F04C7608009946080000000940C9030800FC
S214082A002116080045050800D9040800F4AC07207C
S214082A10613F08002920080045200800E53C08001A
S214082A2020760800F0AC072068760800813F08008A
S214082A300000F03F31450800090D0800F8AC0720F3
S214082A40C1200800AD450800787608008C76080096
S214082A50014B185C704700BF5C010720436913F000
S214082A60020F1DBFC1F30801C16100200120704795
S214082A70436913F0010F05D08369C3F308030B609D
S214082A80002070470120704700B583B001220DF181
S214082A9007011048104B984772B6BFF35F8F0022A5
S214082AA00E4B1A700E4B1B789DF807100D4AD15422
S214082AB09B2B0BD001330A4A13700122074B1A705E
S214082AC0BFF35F8F62B603B05DF804FB0022044BC9
S214082AD01A70F2E700800940FD2C08009E010720C6
S214082AE09CAD072000AD0720F0B583B004460D4620
S214082AF000230193204B98420DD0204B984212D0C9
S214082B001F4B984219D01F4B9C4220D01E4B9C420C
S214082B1027D003B0F0BD1F461C4E29463846B0479E
S214082B200028FAD1EFE71F46194E01A93846B047E4
S214082B300028FAD1019B2B70E8E71E46144C01A921
S214082B403046A0470028FAD1019B2B70E1E71E46C5
S214082B500F4C01A93046A0470028FAD1019B2B70DC
S214082B60D7E71E460A4C01A93046A0470028FAD1E6
S214082B70019B2B70CDE700BF00080E40008009407F
S214082B8000C0094000000A4000400A400B2E08001A
S214082B90712A080070B50C461E4B98420DD01E4B85
S214082BA0984213D01D4B984219D01D4B98421FD0FF
S214082BB01C4B984225D0002070BD1E461A4D214653
S214082BC03046A8470028FAD1012070BD1E46174D8A
S214082BD021463046A8470028FAD1012070BD1E4677
S214082BE0124D21463046A8470028FAD1012070BD6C
S214082BF01E460E4D21463046A8470028FAD1012029
S214082C0070BD1E46094D21463046A8470028FAD111
S214082C10012070BD00080E400080094000C0094031
S214082C2000000A4000400A40FB2D08005D2A080004
S214082C3030B585B00820124DA847124C124B1C60C0
S214082C40124A134B1A60134A134B1A60134B01931C
S214082C504FF4E13302934FF4006303930820A84728
S214082C6001A920460E4B98470E4D2B680021986800
S214082C700D4CA0472B6800215868A04705B030BD0A
S214082C805D33080000080E40A8AE0720952B080004
S214082C90A4AE0720E92A08004CAE072000BD0105AF
S214082CA0C52D0800A8010720494808000138022851
S214082CB015D82DE9F0410E4614469AB10D46DFF8B0
S214082CC038800C4FD8F8000015F8011B3B68984769
S214082CD000280ADBA81B013CF4D1BDE8F0814FF0C0
S214082CE0FF3070471046BDE8F0814FF0FF30BDE872
S214082CF0F08100BFA4AE0720A8AE0720002A51D056
S214082D002DE9F04F83B005460C4692468A44264F76
S214082D10DFF8A890254E1DE021463846C84700280B
S214082D20FAD121E09B46DFF8988001A95846C047AB
S214082D300028FAD1019B237019E09B46DFF88080B3
S214082D4001A95846C0470028FAD1019B23700134D0
S214082D50544523D000230193BD42DDD0144B9D4239
S214082D60E0D0144B9D42E8D0134B9D420BD0B542A1
S214082D70EDD1DFF84C8001A93046C0470028FAD1CB
S214082D80019B2370E3E79B46DFF8348001A9584689
S214082D90C0470028FAD1019B2370D8E7002003B06B
S214082DA0BDE8F08F0020704700080E4000400A403B
S214082DB00080094000C0094000000A400B2E0800A9
S214082DC0712A080010B4AC2303600B684A68B3FB8A
S214082DD0F2F31B095C1E4FF6FE7294420BD8036290
S214082DE08B68436040F20223C0F82031502303600A
S214082DF0002010BC70470120FBE7436913F0020F60
S214082E001ABFC161002001207047436913F0010F03
S214082E101DBF83690B7000200120704710B50E484F
S214082E200E4B98473E2100200D4B98470D4CA04767
S214082E300028FCD00C4B98470C4A0D4B9A620D4C58
S214082E40A0470028FCD010200B4B98470B4B984700
S214082E500148024B984710BD00BD0105B100072088
S214082E60D93208002D3308003D330800013F0D20F5
S214082E7000060E404D330800753208004D34080031
S214082E8010B54FF400421A4B5A600B20194CA04755
S214082E900C20A0470D20A0470E20A0474FF06051F9
S214082EA03B20154CA0474FF060515520A0474FF0E7
S214082EB060515620A04711496820A04710495C2059
S214082EC0A047104A4FF440710F48104B98474FF0F0
S214082ED000612C20A0474FF000612D20A0474FF03E
S214082EE000612B20A0474FF000612A20A04710BDA4
S214082EF0501A0E405D330800F92F080079000028A4
S214082F000100002801000008000E0E40C930080025
S214082F1021F00061B1F1405F0CBF836BC36B1342B5
S214082F2014BF0120002070474264B1F1805F16D0BC
S214082F300BD849B1B1F1006F05D1036F016F0B4093
S214082F4023EA0203036742607047B1F1405FFBD093
S214082F50B1F1605FF8D0B1F1205FF4D17047036F2C
S214082F6013430367EFE7416412F0010F14BF41668D
S214082F70016612F00A0F14BF0162416212F0020FD6
S214082F8007D112F0080F18BFC0F88410416101601D
S214082F907047C0F88010F9E710B4019C416444B942
S214082FA0016643B1016542B941630161016010BC25
S214082FB070474166F5E74165F5E70163F5E712F006
S214082FC0100F10D0C0F8B01012F0200F14BFC0F8C1
S214082FD0D410C0F8D01012F0400F14BFC0F8C010BC
S214082FE0C0F8C4107047C0F8B41070470164704742
S214082FF0C06C7047806C704770B582B00D46430948
S21408300003F5001303F207735C0201F0F043B3F113
S214083010205F31D016D8B3F1006F1BD0B3F1805FB4
S21408302016D100F01F000126864032464FF0805128
S2140830302046224B984715F0010F14BF6666266691
S214083040012017E0B3F1405F21D0B3F1605F1ED0D6
S21408305000200FE000F01F000126864032464FF0A1
S21408306000612046154B984715F0010F14BF666699
S2140830702666012002B070BD00F01F0101262A4610
S21408308006FA01F120460E4B98473046F2E705F05F
S214083090605200F01F01012605EA06030093C5F3F7
S2140830A08003B2F1605F14BF0022012206FA01F124
S2140830B02046044CA0473046DCE700BF292F08000E
S2140830C0672F0800992F080070B582B005460E468F
S2140830D0144602F0F043B3F1205F27D011D8B3F1BD
S2140830E0006F16D0B3F1805F11D10A464FF08051B9
S2140830F0194B984714F0010F14BF6E662E66012010
S21408310012E0B3F1405F15D0B3F1605F12D0002033
S2140831100AE00A464FF000610F4B984714F0010F7B
S21408312014BF6E662E66012002B070BD0B4B984722
S2140831300120F9E704F0605204F001030093C4F399
S2140831408003B2F1605F14BF002201223146284690
S214083150034CA0470120E7E7292F0800672F08003F
S214083160992F08002DE9F041044688460E4B9847EB
S214083170054620460D4B9847054013D00C4C04F1E5
S214083180600603E0B4420DD010345DB120684045B7
S214083190F8D161682942F5D0E3689847636825EA5C
S2140831A00305EFE7BDE8F081F12F0800F52F0800CA
S2140831B0A0AD0720F8B5184C2668062E29D84FF07B
S2140831C0000C6446154F04E00134E4B2A446A64257
S2140831D009D3A64625017D598D42F5D107EB04157E
S2140831E06D689542F0D10D4D4FEA0E1E05EB0E04A4
S2140831F045F80E106260A3600699E16001366645E0
S21408320004BF05490E6011461A46054B984700202C
S214083210F8BD0120F8BD00BF10AE0720A0AD0720FE
S214083220BF2F080008B50B210148024B984708BD78
S214083230000E0E406531080008B50C210148024B07
S214083240984708BD00100E406531080008B50D21E6
S2140832500148024B984708BD00120E406531080029
S21408326008B50E210148024B984708BD00140E40C9
S21408327065310800174A136B23F070031843106370
S214083280936E13F0080F0AD14FF4006311498A6E43
S21408329012F0080F03D1013BF9D1012070470D4AFF
S2140832A0136B23F0030343F002031363936E13F0C8
S2140832B0080F0AD14FF4006306498A6E12F0080F09
S2140832C005D1013BF9D10120704700207047002046
S2140832D0704700BF00060E40C8B9114A136A0902B3
S2140832E089B223F45C1323F0030343F45C1343F01E
S2140832F001030B431362936E13F0010FFBD0084AC9
S214083300136A43F09B7343F480331362704704498F
S2140833100B6A044A1A40044B13430B62704700BFFB
S21408332000060E40FCFFC8FE02003701024B986EEE
S21408333000F48030704700BF00060E404FF0005281
S214083340014B9A62704700BF00060E40024B986E0B
S21408335000F00200704700BF00060E402C281ED85A
S2140833601F280CD8114B9A6901238340934318D021
S214083370012303FA00F00D4B18610020704720382F
S2140833800A4BD3F808210123834093430BD001232B
S21408339003FA00F0054BC3F800010020704701202F
S2140833A07047002070470020704700BF00060E4098
S2140833B0FEE7000008B51C4B1C4A9A4210D01C4B6E
S2140833C0194A9A420CD2013B9B1A23F00303043392
S2140833D01344164951F8040B42F8040B9A42F9D1E3
S2140833E0144B154A9A420AD2013B9B1A23F0030350
S2140833F004331344002142F8041B9342FBD10F4BBD
S21408340023F0604222F07F020D498A6003F1604390
S214083410B3F5801F03D28B6843F000538B60094BCB
S2140834209847094B9847FEE700000720A47808004D
S214083430580B0720D4AE0720580B072000000800BA
S21408344000ED00E049460800B53508003D4B1B6B0B
S21408345003F00303032B0ED8DFE803F0021C38380A
S214083460394B5B6913F0800F14BF4FF400424FF4DA
S214083470FA42364B1A60334B1B6B03F07003702B03
S21408348057D0304B1A6B3149C2F302120B68D3403F
S2140834900B6070472B4B1B6A13F0807F03D02C4AB7
S2140834A02A4B1A60E7E72B4A284B1A60254B1B6AFB
S2140834B003F07003102B05D0202BDCD1244A234BB5
S2140834C01A60D8E7244A214B1A60D4E71D4B1B6ABA
S2140834D013F0807F0CD01E4A1C4B1A60194B1B6BCE
S2140834E003F00303022B16D01C4A184B1A60C2E7D7
S2140834F0184A164B1A60134B1B6A03F07003102BFE
S21408350005D0202BEAD1124A104B1A60E6E7124A79
S2140835100E4B1A60E2E70B4A916A926A0B48C1F3AF
S2140835200A41036801FB0333D2B2B3FBF2F303602C
S214083530A1E7064A13680A49A1FB03135B08136050
S214083540704700BF00060E40101A0E40A001072064
S214083550001BB70000093D0000127A00001C4E0E42
S214083560ABAAAAAA0A4B1B6853B1094B1B681A18C0
S2140835700849914208DB1046054A1060184670470D
S214083580054A034B1A60F0E74FF0FF30704700BF5C
S21408359014AE0720FC7F0820D8CE07204FF0FF3057
S2140835A070474FF400534B60002070470120704767
S2140835B00020704770B584B0524B9847524B9847D6
S2140835C0524B98470B20524CA0470C20A0470D2082
S2140835D0A0470E20A0474F4B98474F4B98474F4B56
S2140835E098474F484F4B98474F4B984735204F4D75
S2140835F0A84700F01F03012404FA03F3400900F566
S214083600001000F20770400203603420A84700F05C
S2140836101F0304FA03F3400900F5001000F20770D0
S214083620400203601E20A84700F01F0304FA03F3B5
S214083630400900F5001000F20770400203600520FC
S214083640A84700F01F0304FA03F3400900F500102A
S21408365000F20770400203603520A847430903F5C7
S214083660001303F207735B0200F01F0004FA00F071
S2140836701861C3F8A0003420A847430903F50013CF
S21408368003F207735B0200F01F0004FA00F01861EB
S214083690C3F8A0000520A847430903F5001303F262
S2140836A007735B0200F01F0004FA00F05861C3F8C5
S2140836B0A0001F4A536E43F0007353660022102181
S2140836C020461C4B98471C4B186000240394029411
S2140836D001940226009623464FF4007217491848AC
S2140836E0184DA847039402940194009623464FF475
S2140836F0007215491548A847154B9847204604B048
S21408370070BD00BF1D2E0800812E0800610108004C
S2140837105D330800312C0800891F0800751E080054
S214083720000009406903080099020800512A0800A9
S21408373000120E40B50C0800A0AE0720B0760800B0
S21408374049230800D1100800BC760800C9240800E0
S214083750D5120800000000002DE9F84FC24B21F0F2
S21408376000469E420D468A46044610DDBF4B9E42E2
S21408377000F3B58000F0B080BD4BBE49BE4CBAF130
S214083780000FD8BF0B4620461946BDE8F88FBB4B3E
S2140837909E4200F3C180A3F1DE739E4240F3AB80E5
S2140837A04FF0FF3B22462B462046294600F04EFCAB
S2140837B002460B468046894600F048FC92A3D3E9A9
S2140837C0002306460F4600F041FC91A3D3E90023E8
S2140837D000F08AFA32463B4600F038FC8EA3D3E95E
S2140837E0002300F081FA32463B4600F02FFC8CA3FB
S2140837F0D3E9002300F078FA32463B4600F026FC70
S21408380089A3D3E9002300F06FFA32463B4600F05E
S2140838101DFC87A3D3E9002300F066FA42464B4610
S21408382000F014FC84A3D3E900238046894630467A
S214083830394600F00BFC82A3D3E9002300F052FAC5
S21408384032463B4600F002FC7FA3D3E9002300F093
S21408385049FA32463B4600F0F9FB7DA3D3E900233C
S21408386000F040FA32463B4600F0F0FB7AA3D3E974
S214083870002300F037FA32463B4600F0E7FBBBF180
S214083880FF3F02460B466ED04046494600F02CFAEB
S21408389022462B4600F0DAFB794E7A4B4FEACB0BE2
S2140838A05E449B44DBE9002300F01CFA22462B46C4
S2140838B000F018FA0B460246D6E9000100F012FAA4
S2140838C0BAF1000F04460B46BFF65DAF01F10043A0
S2140838D020461946BDE8F88F00283FF44DAF22462B
S2140838E02B462046294600F0FFF904460B4620469C
S2140838F01946BDE8F88F5AA3D3E9002300F0F4F977
S2140839000022614B00F032FE00283FF449AF2B46F8
S21408391020461946BDE8F88F00F0C0F85B4B044611
S2140839209E420D4630DCA3F550239E4255DC0246E7
S2140839300B4600F0D9F90022534B00F0D3F90022C9
S21408394006460F464FF080432046294600F0CCF93D
S21408395002460B463046394600F0A2FC4FF0000BF4
S21408396004460D461EE74046494600F0BDF9224685
S2140839702B4600F06BFB0B4602462946204600F015
S214083980B1F904460B46FEE6414B9E421ADC00227D
S214083990404B00F0A7F9002206460F463D4B20464E
S2140839A0294600F053FB0022374B00F09DF90246EB
S2140839B00B463046394600F073FC4FF0020B0446BF
S2140839C00D46EFE602460B460020334900F068FC39
S2140839D04FF0030B04460D46E4E600222A4B00F09F
S2140839E081F9002206460F46274B2046294600F056
S2140839F07BF902460B463046394600F051FC4FF03C
S214083A00010B04460D46CDE611DA22E33AAD903FA7
S214083A10EB0D76244B7BA93F513DD0A0660DB13FF8
S214083A206E204CC5CD45B73FFF8300922449C23F60
S214083A300D5555555555D53F2F6C6A2C44B4A2BF25
S214083A409AFDDE522DDEAD3F6D9A74AFF2B0B33FED
S214083A50711623FEC671BC3FC4EB98999999C93F65
S214083A609C7500883CE4377EFFFF0F440000F07F1B
S214083A70FB21F93FFB21F9BF182D4454FFFFDB3F1C
S214083A80C8760800E87608000000F03FFFFFF23F1F
S214083A90FF7F03400000F83F0000F0BF21F0004120
S214083AA0704700BF2DE9F04F8BB004460D4600F076
S214083AB057F8294B064693F900A00F46BAF1FF3F80
S214083AC012D022462B462046294600F059FD83464A
S214083AD050B94FF000084FF00009204629464246E4
S214083AE04B4600F025FD20B9304639460BB0BDE8F8
S214083AF0F08F0122194BCDF820B0CDE90445CDE969
S214083B0002458DE80C00BAF1000F17D042464B4626
S214083B104046494600F0C4FBBAF1020FCDE906015B
S214083B200ED100F08BFD21230360089B73B9DDE9F5
S214083B300667304639460BB0BDE8F08FCDE90689F2
S214083B40684600F0C9F80028EFD1EAE700F076FDED
S214083B50089B0360EBE700BFA4010720087708006E
S214083B602DE9F8435B4F05468F430C4600F09280DC
S214083B7000290B4602466FDD0F157BD0A7F2FF37EC
S214083B80C3F31303F80743F480135CD40026162007
S214083B90B6464FF4001103EBD2747F10234452004C
S214083BA00EEB01049C424FEAD2754FEA420203DC50
S214083BB01B1B04EB010E0E44013805EB43034FEACA
S214083BC05101EDD1202484464FF0004109E020D071
S214083BD003EBD275013C4FEA51012B444FEA4202EF
S214083BE020D0734501EB0C05F1DD002D05EB010C2B
S214083BF009DBF0469542A3EB0E0300D9013BC64607
S214083C00521B0844E4E7BCF1000FF2DB0EF1010892
S214083C10F0E79542DCD8002D05EB010C44DB98460E
S214083C200023ECE7134313D14008731003F17F53C6
S214083C3003F5001303EB07594946F20748BF40F05F
S214083C400040BDE8F8835B0003EBD27352009DE7A3
S214083C50411C2DD00130E7E7064621F000473E43D9
S214083C60EFD069BB0F46D30A153F5205002BFAD092
S214083C70DE0220D4002400E004465B00DD0204F1E6
S214083C800100F9D5C0F1200122FA01F10B433F1BD0
S214083C90824073E702460B4600F0D8F92A462346C8
S214083CA000F022F8BDE8F883BCF1000FAEDAB6E7FC
S214083CB001362046B9E7002020214FF0FF34E3E71D
S214083CC002460B4600F00EF802460B4600F0E8FAED
S214083CD0B7E700BF0000F07F0020704781F0004182
S214083CE002E000BF83F0004330B54FEA41044FEAD4
S214083CF0430594EA050F08BF90EA020F1FBF54EA6F
S214083D00000C55EA020C7FEA645C7FEA655C00F00A
S214083D10E2804FEA5454D4EB5555B8BF6D420CDDDB
S214083D202C4480EA020281EA030382EA000083EA5E
S214083D30010180EA020281EA0303362D88BF30BDFE
S214083D4011F0004F4FEA01314FF4801C4CEA113154
S214083D5002D0404261EB410113F0004F4FEA0333B3
S214083D604CEA133302D0524263EB430394EA050F3E
S214083D7000F0A780A4F10104D5F1200E0DDB02FAAD
S214083D800EFC22FA05F2801841F1000103FA0EF241
S214083D90801843FA05F359410EE0A5F120050EF107
S214083DA0200E012A03FA0EFC28BF4CF0020C43FA38
S214083DB005F3C01851EBE37101F0004507D54FF045
S214083DC0000EDCF1000C7EEB00006EEB0101B1F595
S214083DD0801F1BD3B1F5001F0CD349085FEA3000DB
S214083DE04FEA3C0C04F101044FEA445212F5800FE6
S214083DF080F09A80BCF1004F08BF5FEA500C50F183
S214083E00000041EB045141EA050130BD5FEA4C0C65
S214083E10404141EB010111F4801FA4F10104E9D1EE
S214083E2091F0000F04BF01460020B1FA81F308BFE5
S214083E302033A3F10B03B3F120020CDA0C3208DDB1
S214083E4002F1140CC2F10C0201FA0CF021FA02F18C
S214083E500CE002F11402D8BFC2F1200C01FA02F1FC
S214083E6020FA0CFCDCBF41EA0C019040E41AA2BF21
S214083E7001EB0451294330BD6FEA04041F3C1CDAE9
S214083E800C340EDC04F11404C4F1200220FA04F009
S214083E9001FA02F340EA030021FA04F345EA0301B3
S214083EA030BDC4F10C04C4F1200220FA02F001FA75
S214083EB004F340EA0300294630BD21FA04F02946F7
S214083EC030BD94F0000F83F4801306BF81F4801190
S214083ED00134013D4EE77FEA645C18BF7FEA655C03
S214083EE029D094EA050F08BF90EA020F05D054EAD5
S214083EF0000C04BF1946104630BD91EA030F1EBFDA
S214083F000021002030BD5FEA545C05D140004941DD
S214083F1028BF41F0004130BD14F580043CBF01F5D0
S214083F20801130BD01F0004545F0FE4141F47001B6
S214083F304FF0000030BD7FEA645C1ABF1946104691
S214083F407FEA655C1CBF0B46024650EA013406BF92
S214083F5052EA033591EA030F41F4002130BD00BF51
S214083F6090F0000F04BF0021704730B54FF480640E
S214083F7004F132044FF000054FF0000150E700BF8F
S214083F8090F0000F04BF0021704730B54FF48064EE
S214083F9004F1320410F0004548BF40424FF00001DB
S214083FA03EE700BF42004FEAE2014FEA31014FEA1E
S214083FB002701FBF12F07F4393F07F4F81F060516D
S214083FC0704792F0000F14BF93F07F4F704730B5DC
S214083FD04FF4607401F0004521F0004120E700BF6F
S214083FE050EA010208BF704730B54FF000050AE0F6
S214083FF050EA010208BF704730B511F0004502D5F7
S214084000404261EB41014FF4806404F132045FEAF8
S214084010915C3FF4DCAE4FF003025FEADC0C18BF9D
S21408402003325FEADC0C18BF033202EBDC02C2F193
S214084030200300FA03FC20FA02F001FA03FE40EA25
S2140840400E0021FA02F11444C1E600BF70B54FF025
S214084050FF0C4CF4E06C1CEA11541DBF1CEA135507
S21408406094EA0C0F95EA0C0F00F0DEF82C4481EA6F
S214084070030621EA4C5123EA4C5350EA013518BF8F
S21408408052EA033541F4801143F4801338D0A0FB7C
S21408409002CE4FF00005E1FB02E506F00042E0FB29
S2140840A003E54FF00006E1FB03569CF0000F18BF2F
S2140840B04EF0010EA4F1FF04B6F5007F64F54074D7
S2140840C004D25FEA4E0E6D4146EB060642EAC6216A
S2140840D041EA55514FEAC52040EA5E504FEACE2ED7
S2140840E0B4F1FD0C88BFBCF5E06F1ED8BEF1004FDA
S2140840F008BF5FEA500E50F1000041EB045170BD56
S21408410006F0004646EA010140EA020081EA030199
S214084110B4EB5C04C2BFD4EB0C0541EA045170BD95
S21408412041F480114FF0000E013C00F3AB8014F10F
S214084130360FDEBF002001F0004170BDC4F1000458
S214084140203C35DA0C341BDC04F11404C4F12005D9
S21408415000FA05F320FA04F001FA05F240EA020034
S21408416001F0004221F0004110EBD37021FA04F66A
S21408417042EB06015EEA430E08BF20EAD37070BD24
S214084180C4F10C04C4F1200500FA04F320FA05F083
S21408419001FA04F240EA020001F0004110EBD37085
S2140841A041F100015EEA430E08BF20EAD37070BDF5
S2140841B0C4F1200500FA05F24EEA020E20FA04F3CE
S2140841C001FA05F243EA020321FA04F001F000417D
S2140841D021FA04F220EA020000EBD3705EEA430EEE
S2140841E008BF20EAD37070BD94F0000F0FD101F01D
S2140841F00046400041EB010111F4801F08BF013C56
S214084200F7D041EA060195F0000F18BF704703F093
S2140842100046520043EB030313F4801F08BF013D1A
S214084220F7D043EA0603704794EA0C0F0CEA1355D6
S21408423018BF95EA0C0F0CD050EA410618BF52EA90
S2140842404306D1D181EA030101F000414FF0000096
S21408425070BD50EA410606BF1046194652EA4306A4
S21408426019D094EA0C0F02D150EA013613D195EA18
S2140842700C0F05D152EA03361CBF104619460AD160
S21408428081EA030101F0004141F0FE4141F470016A
S2140842904FF0000070BD41F0FE4141F4780170BD5A
S2140842A070B54FF0FF0C4CF4E06C1CEA11541DBFBF
S2140842B01CEA135594EA0C0F95EA0C0F00F0A7F8C1
S2140842C0A4EB050481EA030E52EA03354FEA0131EE
S2140842D000F088804FEA03334FF0805545EA131301
S2140842E043EA12634FEA022245EA111545EA1065C9
S2140842F04FEA00260EF000419D4208BF964244F160
S214084300FD0404F5407402D25B084FEA3202B61A7E
S21408431065EB03055B084FEA32024FF480104FF452
S214084320002CB6EB020E75EB030E22BFB61A7546C6
S21408433040EA0C005B084FEA3202B6EB020E75EB59
S214084340030E22BFB61A754640EA5C005B084FEAC1
S2140843503202B6EB020E75EB030E22BFB61A75468E
S21408436040EA9C005B084FEA3202B6EB020E75EB99
S214084370030E22BFB61A754640EADC0055EA060E5A
S21408438018D04FEA051545EA16754FEA06164FEA9D
S214084390C30343EA52734FEAC2025FEA1C1CC0D149
S2140843A011F4801F0BD141EA00014FF000004FF0D6
S2140843B0004CB6E711F4801F04BF01430020B4F197
S2140843C0FD0C88BFBCF5E06F3FF6AFAEB5EB030C4F
S2140843D004BFB6EB020C5FEA500C50F1000041EB4C
S2140843E0045170BD0EF0004E4EEA113114EB5C0419
S2140843F0C2BFD4EB0C0541EA045170BD41F48011EC
S2140844004FF0000E013C90E645EA060E8DE60CEAF3
S214084410135594EA0C0F08BF95EA0C0F3FF43BAF10
S21408442094EA0C0F0AD150EA01347FF434AF95EAC7
S2140844300C0F7FF425AF104619462CE795EA0C0FAB
S21408444006D152EA03353FF4FDAE1046194622E778
S21408445050EA410618BF52EA43067FF4C5AE50EA52
S21408446041047FF40DAF52EA43057FF4EBAE12E742
S2140844704FF0FF3C06E000BF4FF0010C02E000BF23
S2140844804FF0010C4DF804CD4FEA410C7FEA6C5C06
S2140844904FEA430C18BF7FEA6C5C1BD001B050EAA9
S2140844A0410C0CBF52EA430C91EA030F02BF90EA94
S2140844B0020F0020704710F1000F91EA030F58BF53
S2140844C0994208BF90422CBFD8176FEAE37040F0B5
S2140844D0010070474FEA410C7FEA6C5C02D150EA53
S2140844E0013C07D14FEA430C7FEA6C5CD6D152EA0E
S2140844F0033CD3D05DF8040B704700BF84461046D3
S21408450062468C461946634600E000BF01B5FFF7D1
S214084510B7FF002848BF10F1000F01BD4DF808EDA1
S214084520FFF7F4FF0CBF012000205DF808FB00BF72
S2140845304DF808EDFFF7EAFF34BF012000205DF8CC
S21408454008FB00BF4DF808EDFFF7E0FF94BF012019
S21408455000205DF808FB00BF4DF808EDFFF7CEFF1A
S21408456094BF012000205DF808FB00BF4DF808ED59
S214084570FFF7C4FF34BF012000205DF808FB00BF2A
S2140845804FEA410C7FEA6C5C02D150EA013C0AD142
S2140845904FEA430C7FEA6C5C02D152EA033C02D134
S2140845A04FF0000070474FF0010070474FEA410295
S2140845B012F5001215D211D56FF47873B3EB625268
S2140845C012D94FEAC12343F0004343EA505311F08F
S2140845D0004F23FA02F018BF404270474FF0000021
S2140845E0704750EA013005D111F0004008BF6FF05F
S2140845F0004070474FF00000704700BF4A0011D2D5
S21408460012F5001211D20DD56FF47873B3EB62521F
S2140846100ED44FEAC12343F0004343EA505323FA2B
S21408462002F070474FF00000704750EA013002D1A0
S2140846304FF0FF3070474FF000007047014B186886
S214084640704700BFA801072070B50F4E0F4D761BA8
S214084650B61018BF002405D0013455F8043B984717
S214084660A642F9D10A4E0B4D03F006F9761BB61092
S21408467018BF002406D0013455F8043B9847A642D4
S214084680F9D170BD70BD00BF847808008478080032
S2140846908C780800847808000FB410B5074B82B0F1
S2140846A004AC54F8042B186823468168019400F07B
S2140846B03BFA02B0BDE8104004B07047A8010720D6
S2140846C0844641EA000313F0030349D1403A23D352
S2140846D00B6803604B6843608B688360CB68C36075
S2140846E00B6903614B6943618B698361CB69C3615D
S2140846F00B6A03624B6A43628B6A8362CB6AC36245
S2140847000B6B03634B6B43638B6B8363CB6BC3632C
S21408471040304031403ADBD230320BD30B6803606E
S2140847204B6843608B688360CB68C3601030103179
S214084730103AF3D20C3205D351F8043B40F8043B48
S214084740043AF9D2043208D0D2071CBF11F8013B4C
S21408475000F8013B01D30B8803806046704700BF12
S214084760082A13D38B07B1D010F00303AED0C3F1D9
S2140847700403D21ADB071CBF11F8013B00F8013B03
S214084780A4D331F8023B20F8023B9FE7043AD9D37A
S214084790013A11F8013B00F8013BF9D20B78037097
S2140847A04B7843708B7883706046704770B4860782
S2140847B046D0541E002A41D0CAB2034602E014F17D
S2140847C0FF343BD303F8012B9D07F8D1032C2ED9D1
S2140847D0CDB245EA05250F2C45EA054519D92646E2
S2140847E003F11002103E0F2E42F8105C42F80C5CE3
S2140847F042F8085C42F8045C02F11002F2D8A4F110
S214084800100222F00F0204F00F041032032C134497
S2140848100DD91E462246043A032A46F8045BFAD8FF
S214084820221F22F003020432134404F003042CB1BE
S214084830C9B21C4403F8011B9C42FBD170BC7047EC
S21408484014460346C2E700BF00290CBF0222002216
S2140848504FF4806300F000B82DE9F043614D83B053
S2140848602D6804460F4690461E4615B1AB6B002BC6
S21408487064D0B8F1020F06D0B8F1010F00F29F809D
S214084880002EC0F29C80636ED80734D52146284691
S21408489001F0E2F8216B41B104F14003994202D0DD
S2140848A0284601F057FA002323630022B4F90C3097
S2140848B0A26162601A063AD423F44A6323F003031B
S2140848C0B8F1020FA3811DD001AB6A4621462846DF
S2140848D001F0DEFCA3891843A081002E32D1009E89
S2140848E0304601F04DFD074600286BD0A38943F0FB
S2140848F08003A38128E0A3899905C7D4A06D01F099
S214084900C3FCC3E7002500260120616E04F14302BC
S21408491043F00203A660CE07A3816061226022618D
S21408492001D498053ED5284603B0BDE8F083216932
S214084930284601F00FFAB4F90C30BDE7284601F016
S214084940E3F896E7002FCBD0AB6B002B33D0009B59
S214084950B4F90C209E421CBF42F40062A281B8F152
S214084960010F04BF42F00102A28192B212F00803BE
S2140849702760276166610ED0D1071AD50023656EB9
S214084980764215F00105A661A36009D000252846E1
S21408499003B0BDE8F083A360656E15F00105F5D198
S2140849A09305C0D4A06D01F071FC284603B0BDE89D
S2140849B0F083A660F0E7284601F0A6F8C7E74FF0B0
S2140849C0FF35B0E7DDF80090B14504D0484601F061
S2140849D0D7FC074620B9B4F90C304FF0FF3592E7FC
S2140849E04E4683E7A801072020F0030110F00300D5
S2140849F0C0F1000051F8043B00F1040C4FEACC0C5F
S214084A006FF000021CBF22FA0CF213434FF0010CA1
S214084A104CEA0C2C4CEA0C4CA3EB0C0222EA0302E0
S214084A2012EACC1204BF51F8043B0430F4D0C2F1A9
S214084A30000102EA0102B2FA82F2C2F11F0200EB9A
S214084A40D200704740EA010313F0030F70B4034620
S214084A5024D0A2B10C78013A1C70013101333CB164
S214084A606AB111F8014B013A03F8014B002CF7D153
S214084A702AB100211A4403F8011B9A42FBD170BCE4
S214084A8070470E4651F8045BA5F1013424EA050484
S214084A9014F0803F05D1043A43F8045B032AF0D8A3
S214084AA0D7E73146D6E700BF2DE9F84F4B6E934659
S214084AB09C042FD59368126853B30E46074602F136
S214084AC0080919E920045FEA9A0817D00024043D6B
S214084AD001E0A04510D0324655F8041F384601F0CC
S214084AE0B5F8431C04F10104F3D10023CBF80830D1
S214084AF0CBF80430BDE8F88FDBF808302AF0030A54
S214084B00A3EB0A03CBF8083009F10809002BD8D123
S214084B100020EAE701F004FA0023CBF80830CBF8C7
S214084B200430BDE8F88F00BF2DE9F04FADB01D4644
S214084B308B4690460793069018B1836B002B00F0BF
S214084B40F380DBF86430BBF90C00DF0781B202D4CF
S214084B508E0540F1FC808C040AD4DBF8643040F4FF
S214084B60005123F40053ABF80C10CBF8643089B22C
S214084B70080740F1B380DBF81030002B00F0AE8059
S214084B8001F01A030A2B00F0B58000230DF1700A15
S214084B90D1460B93039311931093CDF83CA0CDF810
S214084BA010B098F800304446FBB1252B02D11CE023
S214084BB0252B03D014F8013F002BF9D1A4EB0805E8
S214084BC09DB1109B119A01332A44072BC9F800801F
S214084BD0C9F80450119210937ADD002A40F0B58483
S214084BE0D146039B10922B4403932378002B00F0A6
S214084BF0E58300204FF0000304F101088DF83730F4
S214084C0062780646054603464FF0FF3408F1010869
S214084C10A2F12001582900F2D982DFE811F0280213
S214084C20D702D7023002D702D702D702D702D70256
S214084C30D702A0008802D702A800B802D702A601A9
S214084C40AB01AB01AB01AB01AB01AB01AB01AB01F7
S214084C50AB01D702D702D702D702D702D702D702AC
S214084C60D702D702D702B901D702D702D702D7028E
S214084C70D702D702D702D702D702D7029E01D70299
S214084C80D702D702D702D702A201D702D7025A0202
S214084C90D702D702D702D702D702D702D702D7023F
S214084CA0D702D70261022202D702D702D7027602BB
S214084CB02202D702D7027B02D702FC018901100222
S214084CC0D202D7029502D702AD00D702D702350224
S214084CD009F10809039B2B44039386E7594606986F
S214084CE000F0AAFD18BBBBF80C1001F01A030A2B3B
S214084CF07FF44BAFBBF90E30002BFFF646AFDBF860
S214084D006430DB0705D48F0503D4DBF8580001F0C0
S214084D10BDFA2B4642465946069800F049FD0390D0
S214084D2003982DB0BDE8F08F00F0EEFE09E7DBF83B
S214084D306430D90704D4BBF80C309A0540F1AE8429
S214084D404FF0FF33039303982DB0BDE8F08FDBF8E0
S214084D50580001F099FABBF90C0081B2FBE60799F6
S214084D600A460D680432002D079202DA6D4243F0B7
S214084D70040398F8002049E708959E0600F15A842F
S214084D800799DD060A4600F1EF83580640F1EC83E2
S214084D90002701220E88043107914FF000010025F4
S214084DA08DF83710611C00F0178123F080010291FE
S214084DB056EA070140F01581002C40F05B83002A74
S214084DC040F0B68313F00103059300F055843023B2
S214084DD00DF1B00B0BF8413D059BA342B8BF234627
S214084DE001930DB101330193029B13F0020309935B
S214084DF002D0019B02330193029B13F084030A93AB
S214084E0040F01582089B019A9D1A002D40F30F82E8
S214084E10102D40F38484109BCE461027A146119A85
S214084E20C54E1946069C07E001F1020C01460EF134
S214084E30080E103D102D11DD481C1032072811925F
S214084E408EE8C0001090EFDD002A40F0D981103DB2
S214084E50102D11464FF0010CD646EDDC4C46614647
S214084E60F1462A4407291192C9F80060C9F8045087
S214084E70109100F3EB829DF8375009F10809481C99
S214084E80002D40F0DC81099B002B00F0F681022102
S214084E900EAB0A44072811921090C9F80410C9F8F6
S214084EA0003040F3E681002A40F095830A9B0120F3
S214084EB0802B1146D14640F0E481089B019D5E1B7D
S214084EC0002E40F3DE81102E40F33C84CC4610279B
S214084ED0A1469A4D069C07E001F1020E01460CF128
S214084EE0080C103E102E11DD481C103207281192AF
S214084EF08CE8A0001090EFDD002A40F09B82103E60
S214084F00102E4FF0010E1146D446EDDC4C46E14615
S214084F103244BEF1070F119289E86000CDF840E0F0
S214084F2000F3668309F108090EF101007146A8E14D
S214084F30089513F0200240F0898313F0100140F022
S214084F40198313F0400200F0158307980A460146B5
S214084F5004310688002707911FE7089543F01003D9
S214084F60E7E7089543F0100307E743F0800398F84F
S214084F7000204BE60025A2F1300118F8012B05EBBE
S214084F80850501EB4505A2F130010929F5D93FE66B
S214084F900895002840F0028443F010039E0600F1AE
S214084FA03D830799DD060A4600F1F082580640F16F
S214084FB0ED82B1F900600432F71730463946079299
S214084FC0002871F10002C0F25A83611C9DF8375020
S214084FD04FF001027FF4E9AE56EA070100F04B8273
S214084FE00293012A00F08A82022A40F05A82D346A7
S214084FF00B98330943EA0773390906F00F020F4680
S2140850001E46835C0BF8013D56EA0703F1D1AAEB6E
S2140850100B030593E0E6002840F0BD83990600F1EF
S2140850205983DA0600F1E5805B0640F1E280079ACC
S214085030136804320792BDF80C201A80B1E578226E
S21408504030210895079D8DF839202A1D07923C4A7D
S2140850502E680B9243F002038DF8381000270222C0
S2140850609BE60895002899D08DF8376096E798F85B
S2140850700020002E7FF4CAAD01202026C6E543F0A6
S214085080010398F80020C1E50895002840F08083C1
S2140850902B490B919F0600F1E5820798DE0601462C
S2140850A000F16F825D0640F16C82002704310688A5
S2140850B00791D80740F1208256EA070100F01C82C3
S2140850C030218DF8392043F002038DF8381002227B
S2140850D063E60895002840F055831A490B91D9E7EE
S2140850E0012207981146019202684FF000048DF8D5
S2140850F048200246043208958DF8374005910792F5
S2140851000DF1480B029300246EE643F0400398F82E
S21408511000207BE598F800206C2A03BF98F8012049
S21408512043F0200308F1010843F010036EE598F8F1
S214085130002001202B2669E54477080054770800EC
S21408514028770800147708004FF00002079908959A
S214085150D1F800B08DF837200D1DBBF1000F00F018
S214085160E482671C00F0C382224600215846019359
S21408517001F0C6FB019B002800F0E882A0EB0B02BA
S2140851800795059202939DF83750002424E698F870
S214085190002008F101072A2A00F0E982A2F130016E
S2140851A00929B8464FF000043FF632AD18F8012B2F
S2140851B004EB840401EB4404A2F130010929F5D973
S2140851C026E543F0200398F800201FE508950028F8
S2140851D040F0DB82002A00F0F18001218DF848209B
S2140851E04FF0000201918DF8372005910DF1480B1C
S2140851F088E7079A136804320792039A1A60D0E47D
S2140852000FAA04992046FFF74FFC002840F0438178
S2140852101099D646119A01F1010C0AE60FAA0499CC
S2140852200698FFF741FC002840F03581D1461099D2
S2140852309DF83750119A481C002D3FF424AE0121E2
S2140852400DF137050A44072811921090C9F8041082
S214085250C9F8005040F30981002A40F0AF81099B45
S214085260002B3FF423AE02220846D1460EAB1D9211
S2140852701C93014609F1080901300A9B802B3FF46C
S2140852801CAE059BE41A002C2FDD102C40F3208260
S214085290CE461026B24D069FDDF8109006E0881C14
S2140852A019460EF1080E103C102C10DD4B1C10325F
S2140852B0072B11928EE860001093F0DD002A65D166
S2140852C0103C102C4FF001001146D646EEDCF14695
S2140852D0224407281192C9F80050C9F804401090D3
S2140852E000F3858009F108090130059907280A4462
S2140852F01192C9F800B0C9F80410109040F38280E3
S214085300002A40F01881029B1092580735D5089B52
S21408531001995C1A002C40F3E780D146102C40F324
S2140853200D82102510998F4E069FDDF810B006E006
S214085330881C194609F10809103C102C11DD4B1C75
S2140853401032072B1192C9F80060C9F80450109360
S214085350EEDD42BB103C102C4FF001001146D14642
S214085360EDDC224407281192C9F80060C9F8044009
S214085370109051DD002A40F09A81039B089A019903
S2140853808A42ACBF9B185B1803934EE00FAA4946A7
S2140853903846FFF789FB002840F03E811099D6462C
S2140853A0119A481C7FE70FAA59463846FFF77CFB38
S2140853B060B91099D146119A481CBDE7119BDDF8D3
S2140853C010B0002B40F0CA8100231093DBF864303D
S2140853D013F0010FBBF80C3002D19A0540F1DD80BE
S2140853E05B063FF5ADAC03982DB0BDE8F08F002AFC
S2140853F040F005810123D146059ACDF870B01D927C
S2140854001192109309F10809029B590704D5089BC5
S21408541001995C1A002C81DC039B0899019881424B
S214085420ACBF5B181B18039372BB0023D1461093BE
S214085430FFF7B7BB0FAA04992046FFF735FB50BB0A
S2140854401099D446119A01F1010E4AE5002A7FF414
S214085450E5AE9DF83710002900F01A810122D146E2
S21408546010460DF137011D921C91014609F10809F5
S214085470013008E5029B012A00F09780022A0DD128
S214085480029300260027B2E50FAA04990698FFF7AC
S2140854900BFB0028C9D0DDF810B097E700260027D8
S2140854A00293514600E05946F20842EA4772F80865
S2140854B006F0070307461646303356EA070201F891
S2140854C0013C01F1FF3BEED1029AD6077FF59FAD6E
S2140854D0302B3FF49CAD302302390BF8013CAAEB85
S2140854E0010305938B4677E4039B089A8A42ACBF70
S2140854F09B185B18039398E702224EE4002F08BF18
S2140855000A2E51D3D346304639460A22002301F0E4
S21408551085FE30320BF8012D3046394600230A2224
S21408552001F07CFE06460F4656EA0703EBD16EE509
S2140855300594D34650E40FAA04990698FFF7B4FAE0
S2140855400028A8D1D146119A5EE70FAA04990698B2
S214085550FFF7AAFA00289ED1D146FFF7BBBB00BFCB
S214085560547708004477080004311668002701229B
S214085570079112E407980027014604310668079148
S2140855800BE40E6804310791002792E5166804328A
S214085590F71707923046394612E5DBF8580000F050
S2140855A075FEBBF80C301BE7029B029301230DF136
S2140855B0B00B30360BF8416D05930DE40FAA04992D
S2140855C00698FFF771FA00287FF465AF1099D14660
S2140855D0119A481C57E40FAA04990698FFF764FA2C
S2140855E000287FF458AF1099D146119A481C44E613
S2140855F0002A40F0878001201146D14641E60FAACE
S21408560004990698FFF750FA00287FF444AF1098DC
S214085610D146119A013068E6CB46D7E6079D07358E
S21408562025F0070505F10802D5E9000107920646A8
S2140856300F46C5E4079D073525F0070202F1080165
S214085640D2E9006707910122FFF7A7BB079D073538
S21408565025F0070202F10801D2E900670791002247
S214085660FFF79BBB079D073525F0070101F10800EA
S2140856700790D1E900671CE5D346FFF7ADBB2D259B
S214085680764267EB47078DF837500122FFF78ABB4B
S214085690099BB3B911460120D146F2E5DBF858005C
S2140856A000F0F4FD4FF0FF330393FFF74CBB0FAA4F
S2140856B004990698FFF7F8F900287FF4ECAE119ADB
S2140856C0AAE602220EAB1D921C930120D146D0E515
S2140856D0344DFDE5079A134604330793039B116878
S2140856E0DD171A462B46C1E90023FFF75ABA584673
S2140856F007950293FFF778F9002405909DF8375030
S214085700FFF76ABB0FAA04990698FFF7CDF9002899
S2140857107FF4C1AE1099D146119A481CB1E510998C
S214085720119A0131204EFFF79CBB062C28BF062491
S214085730079505940194DFF874B0E3E410981A4EC0
S21408574001300EE68646174DFFF7E2BB059407952F
S214085750029304469DF83750FFF73EBB06980FAAFB
S2140857605946FFF7A1F900283FF42EAE2EE6079912
S21408577098F801200C68043144EAE474B8460791A6
S214085780FFF744BA8DF83760A7E48DF8376021E54F
S2140857908DF837607CE48DF837603FE48DF8376025
S2140857A0FFF7FABB54770800447708003C770800F0
S2140857B02DE9F0410C464FF0000E4FF48065064682
S2140857C017469846626EE3898989ADF58D6D21F096
S2140857D002011992ADF80E30E269636AADF80C1052
S2140857E016A81AA9CDF818E0079209930091049113
S2140857F00295059500F044FD43463A46694630460C
S214085800FFF792F9051E07DB3046694600F024F9D3
S214085810002818BF4FF0FF35BDF80C305B0603D5DF
S214085820A38943F04003A381169800F02BFD284671
S2140858300DF58D6DBDE8F08138B5304B0546186816
S2140858400C4610B1836B002B38D0B4F90C2093B2F9
S21408585018070CD52069A8B113F001021ED0002243
S2140858606369A2605B42A361F0B1002038BDD90627
S2140858703BD5580725D4206942F00803A3819BB27C
S2140858800028E9D103F42072B2F5007FE4D0284658
S214085890214600F02BFDA3892069DDE7990758BF4C
S2140858A06269A2600028E0D1B4F90C301A06DDD58A
S2140858B043F04003A3814FF0FF3038BD00F024F9D1
S2140858C0C3E7216B51B104F14003994204D028463E
