S01200004672656552544F5370322E73726563A6
S21408000048C70720A91D0800A51D0800A51D08004B
S214080010A51D0800A51D0800A51D08000000000075
S2140800200000000000000000000000008503080033
S214080030A51D080000000000010408003D04080093
S214080040A51D0800A51D0800A51D0800A51D08007B
S214080050A51D0800A51D0800A51D0800A51D08006B
S214080060A51D0800A51D080000000000151C0800B6
S214080070291C08003D1C0800511C08000000000050
S21408008000000000A51D0800A51D0800A51D080005
S214080090A51D0800A51D0800A51D0800A51D08002B
S2140800A0A51D080000000000A51D0800A51D0800E5
S2140800B0A51D0800A51D0800A51D0800A51D08000B
S2140800C0A51D0800A51D0800A51D0800A51D0800FB
S2140800D0A51D0800A51D0800A51D0800A51D0800EB
S2140800E0A51D0800A51D0800A51D0800A51D0800DB
S2140800F0A51D080010B5054C237833B9044B13B179
S2140801000448AFF300800123237010BD680507205C
S2140801100000000000240800084B10B51BB1084872
S2140801200849AFF300800848036803B910BD074BB9
S214080130002BFBD0BDE81040184700BF00000000A9
S214080140002408006C0507200024080000000000B2
S21408015010B489014318022444504FF0FF319962C5
S214080160196A5A605DF8044B704700BFC0F8C4109F
S214080170704700BF890102234350704710B51B2003
S214080180084B9847084C204600210A46074B9847D4
S21408019020460021064B984720460021054B9847E5
S2140801A0002010BD511D080000000840510108003D
S2140801B06D01080075010800034BDB6C034A1368E1
S2140801C001331360704700BF00100E4084050720F7
S2140801D070B582B00C20124B9847124C20464FF050
S2140801E080610122104B98474FF080652562C4F85D
S2140801F0845040F2FF43C4F88C300C4B00932046E2
S2140802000C212A4670230A4EB04720462946094B39
S21408021098474FF48052084B1A6002B070BD00BF72
S214080220511D080000100E404D190800B9010800BD
S214080230A91B0800D919080000E100E070B582B0D3
S214080240084C4FF080663546002301936422019BD4
S214080250013301932563013AF9D166630120024B05
S2140802609847F1E700100E407110080070B582B08C
S214080270084C4FF000663546002301936422019B24
S214080280013301932563013AF9D166630120024BD5
S2140802909847F1E700100E4071100800044B1A68E2
S2140802A042F040021A6040F222221A62704700BFEB
S2140802B000080E4000F1080343604FF0FF328260EA
S2140802C0C360036100230360704700BF0023036117
S2140802D0704700BF43685A684A6042688A605A682E
S2140802E09160596041600861036801330360704794
S2140802F010B40C68B4F1FF3F01D103690AE000F1BD
S2140803000803C2681268944204D35B685A68126885
S2140803109442FAD25A684A6091608B6059600861C4
S2140803200368013303605DF8044B704743688268CE
S2140803309A60836842685A6003695A68824204BFB2
S21408034082685A60002202611A68013A1A601868C0
S214080350704700BF03480068006880F3088862B6E4
S21408036000DF00BF08ED00E04FF0807340F8043C63
S21408037040F8081C002340F80C3C40F8202C403875
S214080380704700BF064B19680868B0E8F00F80F39E
S21408039009884FF0000080F311884EF00D0E704764
S2140803A060A607204FF08052014B1A60704700BFC6
S2140803B004ED00E0EFF311804FF0A00181F31188FF
S2140803C07047002008B5034B9847034A1368013363
S2140803D0136008BDB50308002C01072080F31188B8
S2140803E0704700BF08B5044A1368013B136013B989
S2140803F00020024B984708BD2C010720DD030800A3
S214080400EFF309800C4B1A6820E9F00F10602DE90D
S21408041008404FF0A00080F3118800F08FFE4FF0E0
S214080420000080F31188BDE8084019680868B0E83D
S214080430F00F80F30988704760A6072008B54FF0CC
S2140804408052054B1A60054B9847054B9847002085
S214080450044B984708BD00BF04ED00E0B50308004C
S2140804604D0E0800DD030800034A044B1A600722F5
S214080470043B1A60704700BF1F48010014E000E004
S21408048010B5094B1A6842F470021A601A6842F0EE
S21408049070421A60054B98470024054B1C60054BB4
S2140804A09847204610BD00BF20ED00E0690408000C
S2140804B02C01072055030800134A00E01A46136863
S2140804C08342FBD330B4114654681519854203D1CC
S2140804D06868044454601046426884189C420CD1EC
S2140804E00A4B1B689C4206D063681A4442600B6835
S2140804F01B68036002E0046000E00360814218BFE6
S214080500086030BC704700BF8CA5072088A5072068
S21408051038B50446294B9847294B1B689BB9294A86
S214080520294B13600021516049F6F0729818244D43
S214080530286049F6F475595199505A601860234A4C
S2140805401368103B1360002C2ED004F1100212F032
S214080550070F1CBF22F007020832511E49F6FE7329
S214080560994223D817490C6801E021461C4663685F
S2140805709A4202D92368002BF7D1114B1B689C427C
S21408058016D00D68103523680B6063689B1A202BFD
S21408059004D9A018436062600D4B98470B4A13684D
S2140805A061685B1A136004E0002502E0002500E09D
S2140805B00025084B9847284638BD00BF1D0E080082
S2140805C088A507208CA50720880507203001072066
S2140805D0B90408006D0F080080B110B50446084B32
S2140805E09847084A116854F80C3C0B441360A4F169
S2140805F01000054B9847054B984710BD704700BF3D
S2140806001D0E080030010720B90408006D0F080009
S21408061010B50446036C3BB903681BBB4068134B14
S2140806209847002363601DE06AB980681A46104B35
S2140806309847A268236C1344A3606268934211D358
S2140806402368A3600EE0C0681A46094B9847236CD7
S2140806505B42E2681A44E26021688A4202D2626813
S2140806601344E360A36B0133A36310BD6D14080045
S214080670B920080038B50346006858B11A6CDC681B
S2140806801444DC605D68AC4228BFD8600846D96868
S214080690014B984738BD00BFB9200800F8B5044696
S2140806A01E4B9847A36C002B13DD636A1BB910E03A
S2140806B0636A23B90DE004F12406194D194F304634
S2140806C0A84700B1B847A36C013BA364A36C002BF2
S2140806D0EEDC4FF0FF33A364134B98470F4B984755
S2140806E0636C002B13DD23691BB910E0236923B95B
S2140806F00DE004F110060A4D0A4F3046A84700B12F
S214080700B847636C013B6364636C002BEEDC4FF008
S214080710FF336364044B9847F8BD00BFC503080061
S21408072085120800B5130800E503080038B518B99F
S214080730174B984700BFFDE70D460446154B9847EC
S2140807402268216CE36B03FB01F3D018606000207D
S214080750A063A2605B1A1344E3604FF0FF33636440
S214080760A36455B923697BB104F110000A4B984776
S214080770012809D1094B984706E004F11000084DF6
S214080780A84704F12400A847064B9847012038BD1F
S214080790B5030800C503080085120800A50308006D
S2140807A0B5020800E5030800F8B5A0B10D461746DF
S2140807B0064650200E4B9847044660B105FB06F0E7
S2140807C001300B4B9847206040B92046094B9847A4
S2140807D001E000BFFDE7084B9847FAE7E6632564A3
S2140807E020460121054B984784F84D702046F8BDF1
S2140807F011050800D9050800B50308002D070800EC
S2140808002DE9F04F85B00192009318B9384B9847F8
S21408081000BFFDE78A46044629B9036C2BB1344B62
S214080820984700BFFDE7002700E00027314EDFF8B5
S214080830ECB0314DB047A26BE36B9A4212D2204619
S2140808405146009A2D4B9847636A3BB104F1240041
S2140808502B4B9847012801D12A4B9847264B984797
S214080860012042E0019B1BB9234B984700203CE03F
S21408087017B902A8D8470127A847234B9847B04777
S214080880636CB3F1FF3F04BF00236364A36CB3F14A
S214080890FF3F04BF0023A364A84702A801A91B4B77
S2140808A09847E0B9B047D4F83890D4F83C80A847C1
S2140808B0C1450ED104F110000199154B9847204602
S2140808C0144B9847144B98470028B3D10D4B9847BC
S2140808D0B0E720460F4B98470F4B9847AAE72046A5
S2140808E00C4B98470C4B9847002005B0BDE8F08F96
S2140808F0B5030800C5030800E5030800110608004C
S21408090085120800A50308001D0E0800311308000C
S214080910E11108009D0608006D0F0800091308007D
S2140809202DE9F04118B91E4B984700BFFDE70E4663
S21408093015469846044629B9036C1BB1184B9847C8
S21408094000BFFDE7164B98470746A26BE36B9A4233
S21408095018D2204631464246124B9847A36CB3F14C
S214080960FF3F0AD1636A7BB104F124000E4B984717
S21408097060B16DB101242C600BE0A36C0133A36455
S214080980012406E0002404E0012402E0012400E03B
S21408099001243846054B98472046BDE8F08100BF3D
S2140809A0B50308001106080085120800DD030800D4
S2140809B02DE9F04F85B0019218B9464B984700BF0D
S2140809C0FDE789469A46044629B9036C2BB1414B84
S2140809D0984700BFFDE7002700E000273E4EDFF8F7
S2140809E028B13E4DB047A36B43B3E5682046494659
S2140809F03B4B9847BAF1000F12D1A36B013BA36398
S214080A00236813B9374B98476060236993B104F19C
S214080A101000354B984701280CD1344B984709E00D
S214080A20E560636A33B104F124002F4B984708B198
S214080A302E4B9847294B9847012048E0019B1BB945
S214080A40264B9847002042E017B902A8D847012746
S214080A50A847274B9847B047636CB3F1FF3F04BFDE
S214080A6000236364A36CB3F1FF3F04BF0023A364B1
S214080A70A84702A801A91F4B984710BBB047D4F84F
S214080A803880A847B8F1000F15D1236823B9B047B6
S214080A906068194B9847A84704F124000199174B3A
S214080AA098472046164B9847164B9847002899D1E2
S214080AB00E4B984796E72046114B9847114B984798
S214080AC090E720460E4B98470E4B9847002005B0F7
S214080AD0BDE8F08FB5030800C5030800E503080065
S214080AE075060800C113080085120800A50308004B
S214080AF01D0E080031130800ED130800E111080068
S214080B009D0608006D0F08000913080038B504464E
S214080B100D460D4B9847636CB3F1FF3F04BF0023A7
S214080B206364A36CB3F1FF3F04BF0023A364074BC1
S214080B309847A36B23B904F124002946044B984729
S214080B402046044B984738BDC5030800E50308004F
S214080B50411208009D06080010B504460E4B1B6897
S214080B6058600E4B1B68984207D20D4B18680A4B04
S214080B70196804310B4B984710BD0B4B1868064B89
S214080B8019680431074B9847084B1B689C423CBFC2
S214080B90064B1C6010BD00BF60A607207CA6072079
S214080BA080A60720F1020800ACA50720340107201C
S214080BB02DE9F04F83B00C9FDDF834800E9E01902F
S214080BC018B9624B984700BFFDE7894615469B460D
S214080BD0042F03D95D4B984700BFFDE74C205C4BBC
S214080BE098470446002800F0AB80002E40F0A58009
S214080BF0A800574B9847206318B92046554B984786
S214080C009EE0A521AA00544B984705F18045013D72
S214080C10236B03EB850323F0070504F134004946EC
S214080C200A224E4B9847002384F83D303E46042F50
S214080C3028BF0426E662A66404F104094846DFF8DD
S214080C406CA1D04704F11800D0472461C6F1050608
S214080C50A6616462284601995A46414B9847206027
S214080C6010F0070F03D0394B984700BFFDE7B8F1DF
S214080C70000F01D0C8F800403A4B98473A4A136824
S214080C8001331360394B1B680BBB384B1C60136869
S214080C90012B26D1364D05F16408364E2846B04756
S214080CA014354545FAD1DFF808814046314DA84746
S214080CB0314E3046A8473148A8473148A8473148FA
S214080CC0A847314BC3F80080304B1E6009E0304B14
S214080CD01B6833B9254B1B68DB6A9F4224BF234B2E
S214080CE01C60E06A2B4B1B68984284BF294B18602F
S214080CF0294A1368236401331360284B1B689842FB
S214080D0084BF264B186000EB8000194B03EB80006D
S214080D104946234B9847234B98471D4B1B6843B1BE
S214080D20124B1B68DB6A9F4205D91F4B9847012068
S214080D3008E0012006E0012004E00663304660E78C
S214080D404FF0FF3003B0BDE8F08F00BFB5030800D2
S214080D5011050800D9050800A52108004122080049
S214080D6069030800C503080088A6072060A60720B0
S214080D70E4A50720B5020800CCA5072064A607202E
S214080D8048A6072098A50720ACA5072080A6072018
S214080D90B0A5072090A6072084A60720E0A5072070
S214080DA0D5020800E5030800A5030800CD020800E0
S214080DB0B8A5072010B584B00023009301930293CA
S214080DC003930E480E4982220E4CA04701280ED1E6
S214080DD00D4B984701280AD10C4B984701220C4B1B
S214080DE01A6000220B4B1A600B4B984704E018B9A0
S214080DF0064B984700BFFDE704B010BDB9100800C1
S214080E00AC230800B10B080065150800B5030800F8
S214080E10B0A507207CA6072081040800024A1368AC
S214080E2001331360704700BF78A6072010B5044B3F
S214080E309847044B1C68044B9847204610BD00BFD3
S214080E40C50308007CA60720E50308002DE9F04145
S214080E503A4B1B68002B6BD1394B1A6801321A6063
S214080E601B6803BB374B1B681B681BB1364B984780
S214080E7000BFFDE7334B1968344A106818601160E4
S214080E8033490A6801320A601B681B6823B94FF0A9
S214080E90FF32304B1A6006E02A4B1B68DB68DB68BB
S214080EA05A682C4B1A60264B1A682A4B1B689A42BB
S214080EB042D3244B1B681B686BB1224B1B68DB684C
S214080EC0DC6863681E4A1268934213D8224E234F82
S214080ED0DFF8948012E04FF0FF321E4B1A60BDE830
S214080EE0F081184B1B68DB68DC686368144A126874
S214080EF0934203D9174A1360BDE8F081251D28469A
S214080F00B047A36A13B104F11800B047E06A3B681B
S214080F10984288BF386000EB800008EB80002946BE
S214080F200F4B9847074B1B681B68002BD9D1D2E795
S214080F300C4A136801331360BDE8F08178A60720D1
S214080F407CA60720ACA50720B503080080A60720C6
S214080F505CA60720340107202D030800E0A507201B
S214080F60D502080094A50720E4A507202DE9F84334
S214080F70304B1B681BB9304B984700BFFDE72F4B1B
S214080F8098472C4B1A68013A1A601B68002B49D1FF
S214080F902B4B1B6803BB002447E0D8F80C30DC68F2
S214080FA004F11800B84704F104094846B847E06A4F
S214080FB03368984288BF306000EB8000214B03EB13
S214080FC080004946204B9847204B1B68E26ADB6A3C
S214080FD09A4228BF012504E00025DFF890801C4FC0
S214080FE01C4ED8F80030002BD7D11B4B1B6863B1BA
S214080FF0194B1B687BB1194D174CA8472368013B52
S21408100023602368002BF8D105E0012D03D0144B8C
S2140810101B68012B08D10022114B1A60114B984708
S214081020012402E0002400E000240F4B98472046E5
S214081030BDE8F88378A60720B5030800C5030800AE
S21408104088A60720E4A50720D502080060A6072082
S2140810502D030800E0A5072094A507204D0E0800DC
S2140810608CA60720A5030800E503080064A6072049
S21408107010B580B10446094B9847094B1B681C44B9
S214081080084B18680430084B98472046074B984783
S214081090074B984708B9074B984710BD1D0E080020
S2140810A07CA6072060A607202D030800590B080019
S2140810B06D0F0800A503080080B5154D154EDFF81E
S2140810C07480154F19E0C0473468B847ACB1134B65
S2140810D09847F368DC68201D114B9847114A136837
S2140810E0013B13602B68013B2B600F4B9847206B26
S2140810F0DFF84490C8472046C8472B68002BE2D143
S2140811000A4B1B68012BF8D9094B9847D7E700BF4D
S214081110B4A5072048A607206D0F0800C5030800D9
S2140811202D03080088A60720E5030800E4A5072085
S214081130A50308001D0E0800D905080010B5224BA7
S2140811401B686BB9214B1B6803EB83039B00204A83
S214081150D358CBB91D4B1B6843B11C4A1C4909E040
S21408116001221C4B1A6010BD13681BB91A4B98470E
S21408117000BFFDE71368013B1360136803EB8303A6
S21408118051F82330002BEFD0104B1B68104A9900FB
S214081190C81802EB80004468646844600246083257
S2140811A0944206D1606803EB8301094A02EB810288
S2140811B0506003EB8303064A02EB83035B68DA6836
S2140811C0064B1A6010BD00BF78A60720E0A50720CA
S2140811D0E4A507208CA60720B503080060A607200C
S2140811E038B518B90E4B984700BFFDE70C460D4DAD
S2140811F0296818310C4B9847286804300B4B9847D9
S214081200B4F1FF3F05D1296809480431094B9847CE
S21408121038BD094B18682044084B984738BD00BFAE
S214081220B503080060A60720F10208002D03080091
S21408123098A50720D50208007CA60720590B0800A9
S21408124038B518B9094B984700BFFDE70D46084C56
S21408125021681831074B984720680430064B984792
S214081260064B18682844064B984738BDB50308004F
S21408127060A60720D50208002D0308007CA60720D4
S214081280590B080038B5C368DC681CB9164B984774
S21408129000BFFDE704F118052846144B9847144B81
S2140812A01B689BB9251D2846104B9847E06A114BCA
S2140812B01B68984284BF0F4B186000EB80000E4BEB
S2140812C003EB800029460D4B984703E00C48294657
S2140812D00A4B98470B4B1B68E06ADB6A984234BF98
S2140812E00020012038BD00BFB50308002D03080004
S2140812F078A60720E0A50720E4A50720D502080061
S21408130064A6072060A6072008B518B9054B9847B5
S21408131000BFFDE7044A12680260044A1268426089
S21408132008BD00BFB50308005CA607207CA60720FA
S21408133038B518B9194B984700BFFDE70D4604465F
S21408134019B9164B984700BFFDE7154B98472B6809
S214081350B3F1FF3F18D0134A12682168914204D0AF
S214081360114A12686168914210D90F4A116860687C
S214081370091A8B420CD91268121A9B1A2B6020463F
S2140813800A4B9847002404E0002402E0012400E009
S2140813900124074B9847204638BD00BFB503080010
S2140813A0C50308005CA607207CA6072009130800CA
S2140813B0E50308000122014B1A6070478CA6072037
S2140813C0014B1868704700BF60A60720054B1B68CE
S2140813D033B1054B1B68002B0CBF01200220704759
S2140813E000207047B0A5072078A60720002831D02F
S2140813F038B5C36A18490968C96A8B4229D216499A
S2140814000968C96AC1F10501816103EB83031349C1
S21408141001EB83034169994217D10546041D20460E
S2140814200F4B98470C4B1B68D86AE8620D4B1B6835
S214081430984284BF0B4B186000EB8000074B03EB09
S21408144080002146084B984738BD034B1B68DB6A6B
S214081450C36238BD704700BF60A60720E4A5072012
S2140814602D030800E0A50720D5020800E8B138B526
S214081470C16A826C914217D00446051D28460B4B5C
S2140814809847A06CE062C0F10503A361084B1B688F
S214081490984284BF064B186000EB8000054B03EBB0
S2140814A080002946044B984738BD70472D0308002E
S2140814B0E0A50720E4A50720D502080010B50446D5
S2140814C04160206191420AD8D21A83699A4211D2A1
S2140814D00A4B1868211D0A4B9847002010BD9A42EF
S2140814E001D2994208D2074B1868211D044B984729
S2140814F0002010BD012010BD012010BDC8A6072081
S214081500F102080094A6072070B50D4B98470D4BBE
S2140815101B688BB90C4D28460C4EB0470C4C204621
S214081520B0470C4B1D600C4B1C6005200C2100229C
S2140815300A4B9847034B1860094B984770BD00BF85
S214081540C5030800C4A6072098A60720B502080009
S214081550ACA6072094A60720C8A60720A907080057
S214081560E503080010B584B00B4B98470B4B1B6877
S21408157063B104230093002301930293039308485E
S21408158008494FF48272084CA04718B9074B984789
S21408159000BFFDE704B010BD09150800C4A6072063
S2140815A0B9160800B8230800B10B0800B5030800F0
S2140815B030B585B00F4C2568C5B1019102920390ED
S2140815C06BB90D4B984701280A4B186801A907BF45
S2140815D0089A002300221346084CA04707E028462E
S2140815E001A91A460023064CA04700E0002005B0D3
S2140815F030BD00BFC4A60720CD13080001080800A8
S214081600210908002DE9F04782B08146224B984709
S2140816108046224B1B68984234D224E0DA68D2F817
S21408162000A0DB68DC68251D2846B847636A2046A4
S2140816309847E369012B18D1A3695344534506D943
S2140816406360246130682946154B98470DE00023EF
S2140816500093204619465246124CA04728B9124B0A
S214081660984700BFFDE7114E114F33681A68002AE5
S214081670D4D1104A10680D49086013600123C9F8D0
S214081680003002E00023C9F80030044BC3F800809D
S214081690404602B0BDE8F0872D0E0800C0A6072019
S2140816A0F1020800B1150800B503080094A6072043
S2140816B02D030800C8A607202DE9F04387B04D4D36
S2140816C0DFF860814C4B1B681A68002A00F0878098
S2140816D0DB681E68494B984703A8494B9847074656
S2140816E0039B002B30D1864224D8464B9847424B62
S2140816F01B68DB68DC68201DC047E369012B14D132
S214081700A169204631443A4633463F4FB847012838
S2140817100BD1002300932046194632463B4EB0476D
S21408172018B93B4B984700BFFDE7636A20469847C1
S2140817300CE000262868F11B364B9847314B984733
S21408174020B9354B984701E02E4B984702A82C4BFA
S21408175098470746314EDFF8B09038E0059C1CB134
S21408176063690BB1201DC047039B022B1FD0032BB8
S2140817702AD0002B2BD1049BA169204619443A464F
S214081780C847012823D1636A20469847E369012B96
S2140817901DD1A2690023009320461946049C2244C2
S2140817A01A4CA04798B91A4B984700BFFDE704990A
S2140817B0A16119B9164B984700BFFDE72046394482
S2140817C03A463B46C84702E02046154B98472868E5
S2140817D003A900221346B0470028BFD172E7074B7B
S2140817E0984703A8064B98470746039B002BA0D0AC
S2140817F0AAE700BFC4A6072094A607201D0E080067
S214081800051608006D0F0800BD140800B11508007D
S214081810B50308000D0B0800A5030800B109080069
S214081820D90508002D03080010B50E480E4B98473A
S21408183000203E210D4B98470D4CA0470028FCD0B1
S2140818400C4B98470C4A0D4B9A620D4CA047002843
S214081850FCD010200B4B98470B4B98470148024B7F
S214081860984710BD00BD0105A5000720CD1C08003F
S214081870211D0800311D0800013F0D2000060E40FE
S214081880411D0800651C0800591E080010B54FF4D5
S2140818900042164B5A600B20154CA0470C20A04758
S2140818A00D20A0470E20A0473B204FF06051114C5A
S2140818B0A04755204FF06051A04756204FF0605182
S2140818C0A04768200C49A0475C200C49A0470C4854
S2140818D04FF440710B4A0C4B98472B204FF0006191
S2140818E0A0472A204FF00061A04710BD501A0E40AE
S2140818F0511D0800E5190800790000280100002895
S214081900000E0E4001000008B91A08004264B1F142
S214081910805F16D004D8C1B1B1F1006F0AD013E0C9
S214081920B1F1405F11D0B1F1605F0ED0B1F1205F28
S2140819300AD17047036F016F0B4023EA020303675F
S21408194002E0036F1343036742607047416412F076
S214081950010F14BF4166016612F00A0F14BF016238
S214081960416212F0020F02D0C0F8801004E012F0B4
S214081970080F18BFC0F8841041610160704700BFA7
S21408198010B44164019C0CB1416600E001660BB1DD
S214081990016500E041650AB1016300E04163016149
S2140819A001605DF8044B704712F0100F10D0C0F8B5
S2140819B0B01012F0200F14BFC0F8D410C0F8D01022
S2140819C012F0400F14BFC0F8C010C0F8C41070471B
S2140819D0C0F8B410704700BF01647047C06C704709
S2140819E0806C704770B582B00D46430903F5001346
S2140819F003F207735C0201F0F043B3F1205F30D0C6
S214081A0006D8B3F1006F0AD0B3F1805F18D049E06A
S214081A10B3F1405F30D0B3F1605F2DD042E000F004
S214081A201F000126864020464FF0006132461F4BB5
S214081A30984715F0010F14BF66662666012032E047
S214081A4000F01F000126864020464FF0805132469F
S214081A50164B984715F0010F14BF666626660120D8
S214081A6021E000F01F030126204606FA03F12A4665
S214081A700F4B9847304616E000F01F03012605F086
S214081A80605205EA06010091204606FA03F1B2F113
S214081A90605F14BF00220122C5F38003054CA047EF
S214081AA0304600E0002002B070BD00BF0D190800E7
S214081AB04D1908008119080070B582B006460D4613
S214081AC0144602F0F043B3F1205F26D006D8B3F1EF
S214081AD0006F0AD0B3F1805F13D034E0B3F1405FF3
S214081AE01FD0B3F1605F1CD02DE04FF000612A468E
S214081AF0164B984714F0010F14BF7566356601201B
S214081B0022E04FF080512A46104B984714F0010FF8
S214081B1014BF75663566012016E00D4B9847012000
S214081B2012E004F0605204F00103009330462946A0
S214081B30B2F1605F14BF00220122C4F38003054C93
S214081B40A047012000E0002002B070BD0D19080073
S214081B504D190800811908002DE9F0410446884609
S214081B600E4B9847054620460D4B9847054013D020
S214081B700C4C04F160062368434508D16168294285
S214081B8005D0E36840469847636825EA0305B442EB
S214081B9002D01034002DEED1BDE8F081DD19080022
S214081BA0E1190800D0A60720F8B5174C2768062FB5
S214081BB027D84FF0000C6446144E250106EB050E98
S214081BC075598D4204D106EB04156D68954204D00C
S214081BD00134E4B2A446A742EFD2CEF80010CEF8FD
S214081BE00420CEF808300699CEF80C100137674561
S214081BF004BF05490F6011461A46054B9847002052
S214081C00F8BD0120F8BD00BFCCA60720D0A6072047
S214081C10A919080008B502480B21024B984708BDC9
S214081C20000E0E40591B080008B502480C21024B4E
S214081C30984708BD00100E40591B080008B5024812
S214081C400D21024B984708BD00120E40591B08008C
S214081C5008B502480E21024B984708BD00140E40EE
S214081C60591B0800184A136B23F0700318431063B7
S214081C70936E13F0080F03D009E0013B03D11EE072
S214081C804FF4006310498A6E12F0080FF5D00E4A1A
S214081C90136B23F0030343F002031363906E10F0F4
S214081CA0080004D000207047013B03D109E04FF438
S214081CB0006305498A6E12F0080FF5D070470120B8
S214081CC070470120704700BF00060E4038B1114922
S214081CD00B6A114A1A40114B13430B6270470D4AA0
S214081CE0136A23F45C1323F0030343F45C1343F0F2
S214081CF00103090289B20B431362936E13F0010FB6
S214081D00FBD0044A136A43F09B7343F48033136290
S214081D10704700BF00060E40FCFFC8FE02003701F1
S214081D20024B986E00F48030704700BF00060E40E5
S214081D304FF00052014B9A62704700BF00060E40F3
S214081D40024B986E00F00200704700BF00060E4077
S214081D502C281ED81F280CD8114B9A6901238340BB
S214081D601A40934217D0012383400D4A136100207E
S214081D7070470B4BD3F808212038012383401A40BC
S214081D8093420AD001238340054AC2F80031002056
S214081D90704701207047002070470020704700BF3A
S214081DA000060E40FEE700BF08B51F4B1F4A9A42C2
S214081DB003D01F4B1C4A9A4204D31E4B1E4A9A4213
S214081DC010D31BE018490A1D1C4B9B1A23F003036B
S214081DD00433164A134452F8040B41F8040B9A428B
S214081DE0F9D1EAE7164B174AD21A22F003021A4428
S214081DF0043B002143F8041B9342FBD1124B23F00B
S214081E00604222F07F0211498A6003F16043B3F50D
S214081E10801F03D28B6843F000538B600C4B9847A7
S214081E200C4B9847FEE700BF000007200024080078
S214081E306805072048A70720680507206B050720C0
S214081E406C0507204BA707200000080000ED00E0FF
S214081E5069200800751F08003E4B1B6B03F0030340
S214081E60032B5FD8DFE803F0020E2B2B3A4B5B6997
S214081E7013F0800F14BF4FF400424FF4FA42374B6A
S214081E801A604FE0334B1B6A13F0807F03D0344A46
S214081E90324B1A6046E0334A304B1A602D4B1B6AA9
S214081EA003F07003102B02D0202B04D03AE02E4A01
S214081EB02A4B1A6036E02A4A284B1A6032E0254B2D
S214081EC01B6A13F0807F03D0254A244B1A6012E061
S214081ED0244A224B1A601F4B1B6A03F07003102B10
S214081EE002D0202B04D006E01F4A1C4B1A6002E0E2
S214081EF01B4A1A4B1A60174B1B6B03F00303022B83
S214081F000DD1144A936A926A1448C3F30A410368C7
S214081F1001FB0333D2B2B3FBF2F3036002E0134AC9
S214081F200E4B1A600B4B1B6B03F07003702B07D11C
S214081F300A4A13680E49A1FB03135B08136070472F
S214081F40044B1A6B0549C2F302120B68D3400B60A8
S214081F50704700BF00060E40101A0E4038010720D2
S214081F60001BB70000093D0000127A00001C4E0E48
S214081F70ABAAAAAA70B584B02A4B98472A4B9847AA
S214081F802A4B98472A4B98472A4B98470B202A4CA7
S214081F90A0470C20A0470D20A0470E20A047274B9F
S214081FA04FF000621A604FF0806119601961C3F83B
S214081FB0A0101A61C3F8A020012000210322204B9C
S214081FC09847204B186020B100210A460B461E4C45
S214081FD0A047012000210322194B98471B4B186085
S214081FE020B100210A460B46174CA0470226009649
S214081FF00024019402940394154816494FF400727D
S2140820002346154DA8470096019402940394134856
S21408201013494FF400722346A847124B98472046A8
S21408202004B070BD291808008D1808007D01080046
S2140820309D020800D1010800511D080000100E403E
S214082040A907080040A707200108080044A707209A
S2140820503D020800C0230800B10B08006D02080006
S214082060C8230800B50D080070B50F4E0F4D761B37
S214082070B61018BF002405D0013455F8043B98471D
S214082080A642F9D10A4E0B4D00F0A8F9761BB610F9
S21408209018BF002406D0013455F8043B9847A642DA
S2140820A0F9D170BD70BD00BFE8230800E82308001A
S2140820B0F0230800E8230800844641EA000313F0EA
S2140820C0030349D1403A23D30B6803604B68436047
S2140820D08B688360CB68C3600B6903614B69436197
S2140820E08B698361CB69C3610B6A03624B6A43627F
S2140820F08B6A8362CB6AC3620B6B03634B6B436367
S2140821008B6B8363CB6BC36340304031403ADBD282
S21408211030320BD30B6803604B6843608B68836070
S214082120CB68C36010301031103AF3D20C3205D3A6
S21408213051F8043B40F8043B043AF9D2043208D07C
S214082140D2071CBF11F8013B00F8013B01D30B88EE
S21408215003806046704700BF082A13D38B07B1D0A8
S21408216010F00303AED0C3F10403D21ADB071CBF7A
S21408217011F8013B00F8013BA4D331F8023B20F8E4
S214082180023B9FE7043AD9D3013A11F8013B00F81D
S214082190013BF9D20B7803704B7843708B788370C9
S2140821A06046704770B4840746D0541E002A41D053
S2140821B0CDB2034602E0621EE4B3144603F8015BA0
S2140821C09A07F8D1032C2ED9CDB245EA05250F2C4F
S2140821D045EA054519D9264603F11002103E0F2E8A
S2140821E042F8105C42F80C5C42F8085C42F8045C62
S2140821F002F11002F2D8A4F1100222F00F0204F045
S2140822000F041032032C13440DD91E462246043AF6
S214082210032A46F8045BFAD8221F22F00302043287
S214082220134404F003042CB1C9B21C4403F8011B80
S214082230A342FBD170BC704714460346C2E700BFF2
S21408224040EA01039B0770B42BD1032A29D90C4610
S2140822500346214654F8046BA6F1013525EA06051F
S21408226015F0803F05D1043A032A43F8046B21464B
S214082270EFD8A2B10C78013A1C70013101333CB199
S2140822806AB111F8014B013A03F8014B002CF7D15B
S2140822902AB11A44002103F8011B9342FBD170BCF3
S2140822A070470346E5E700BF024B13B1024800F04B
S2140822B005B8704700000000C92208000146002043
S2140822C00246034600F016B838B5084B084DED1A16
S2140822D0AC1018BFED1805D0013C55F8043D9847DA
S2140822E0002CF9D1BDE8384000F082B8FC2308007D
S2140822F0002408002DE9F047254C06462568884640
S214082300D5F8484192469946C4B360681F2817DC3A
S214082310411C76B104EB8003C3F888A0D4F8885132
S214082320012282401543022EC4F88851C3F808914A
S2140823301ED0831C6160002044F82380BDE8F08727
S214082340144B03B34FF4C870AFF300800446D0B103
S214082350D5F84831002784E888003846C5F848414B
S2140823600121C4F88871C4F88C71002EE1D0D1E739
S214082370D4F88C311A43C4F88C21DAE705F5A6742C
S214082380C5F84841C1E74FF0FF30BDE8F08700BF09
S214082390D8230800000000002573090925630925CD
S2140823A0750925750925750D0A00000049444C4530
S2140823B0000000000D0A0000546D7220537663007A
S2140823C0706F735F6E617600726567756C61746FA7
S2140823D0727900004300000040010720F8B500BFEE
S2140823E0F8BC08BC9E467047A922080019010800D8
S2140823F0F8B500BFF8BC08BC9E467047F500080054
S2140824004FF48063204A136002F5007213601F4B76
S2140824101B6A13F0807F07D11D4A1C4B1A621A46A6
S214082420936E13F0010FFBD01A4A184B1A621A461D
S214082430936E13F4803FFBD0144A136B23F0030308
S21408244043F001031363936E13F0080FFBD0124A90
S2140824500E4B9A621A46936E13F0020FFBD01122A7
S2140824600A4B1A631A46936E13F0080FFBD0122213
S214082470064B1A631A46936E13F0080FFBD0074AEA
S214082480074B1A60704700BF000A0E4000060E4051
S2140824900908370009083701013F0D2000BD01056E
S2140824A0380107201B4B984206D800231A4A1360A7
S2140824B002F5007213607047184B984207D84FF41D
S2140824C08073154A136002F5007213607047144B48
S2140824D0984207D84FF400730F4A136002F500724B
S2140824E0136070470F4B984207D84FF440730A4A58
S2140824F0136002F50072136070470B4B984294BF46
S2140825004FF480634FF4A063034A136002F5007229
S21408251013607047BFEA2101000A0E407FF0FA02F6
S214082520FF8FD003FFB3C4047F4A5D05AAAAAAAAF0
S21408253000A00000FFFFFFFF00093D0000000000AC
S214082540000000002C04072094040720FC04072041
S214082550000000000000000000000000000000006E
S214082560000000000000000000000000000000005E
S21408257000000000D423080000000000000000004F
S214082580000000000000000000000000000000003E
S214082590000000000000000000000000000000002E
S2140825A0000000000000000000000000000000001E
S2140825B0000000000000000000000000000000000E
S2140825C000000000000000000000000000000000FE
S2140825D000000000000000000000000000000000EE
S2140825E000000000000000000100000000000000DD
S2140825F00E33CDAB34126DE6ECDE05000B000000A2
S21408260000000000000000000000000000000000BD
S21408261000000000000000000000000000000000AD
S214082620000000000000000000000000000000009D
S214082630000000000000000000000000000000008D
S804081DA92D
